{
  "contractName": "CertificateVerification",
  "abi": [
    {
      "inputs": [
        {
          "internalType": "address[]",
          "name": "_signers",
          "type": "address[]"
        },
        {
          "internalType": "uint256",
          "name": "_quorum",
          "type": "uint256"
        }
      ],
      "stateMutability": "nonpayable",
      "type": "constructor"
    },
    {
      "anonymous": false,
      "inputs": [
        {
          "indexed": true,
          "internalType": "uint256",
          "name": "certificateId",
          "type": "uint256"
        },
        {
          "indexed": false,
          "internalType": "address",
          "name": "approver",
          "type": "address"
        }
      ],
      "name": "CertificateApproved",
      "type": "event"
    },
    {
      "anonymous": false,
      "inputs": [
        {
          "indexed": true,
          "internalType": "uint256",
          "name": "certificateId",
          "type": "uint256"
        },
        {
          "indexed": false,
          "internalType": "string",
          "name": "studentName",
          "type": "string"
        },
        {
          "indexed": false,
          "internalType": "string",
          "name": "courseName",
          "type": "string"
        },
        {
          "indexed": false,
          "internalType": "string",
          "name": "institutionName",
          "type": "string"
        },
        {
          "indexed": false,
          "internalType": "uint256",
          "name": "issueDate",
          "type": "uint256"
        }
      ],
      "name": "CertificateIssued",
      "type": "event"
    },
    {
      "anonymous": false,
      "inputs": [
        {
          "indexed": true,
          "internalType": "uint256",
          "name": "certificateId",
          "type": "uint256"
        },
        {
          "indexed": false,
          "internalType": "string",
          "name": "studentName",
          "type": "string"
        },
        {
          "indexed": false,
          "internalType": "string",
          "name": "courseName",
          "type": "string"
        },
        {
          "indexed": false,
          "internalType": "string",
          "name": "institutionName",
          "type": "string"
        }
      ],
      "name": "CertificateProposed",
      "type": "event"
    },
    {
      "anonymous": false,
      "inputs": [
        {
          "indexed": true,
          "internalType": "uint256",
          "name": "certificateId",
          "type": "uint256"
        }
      ],
      "name": "CertificateRestored",
      "type": "event"
    },
    {
      "anonymous": false,
      "inputs": [
        {
          "indexed": true,
          "internalType": "uint256",
          "name": "certificateId",
          "type": "uint256"
        }
      ],
      "name": "CertificateRevoked",
      "type": "event"
    },
    {
      "anonymous": false,
      "inputs": [
        {
          "indexed": true,
          "internalType": "uint256",
          "name": "certificateId",
          "type": "uint256"
        },
        {
          "indexed": false,
          "internalType": "address",
          "name": "newOwner",
          "type": "address"
        }
      ],
      "name": "CertificateTransferred",
      "type": "event"
    },
    {
      "anonymous": false,
      "inputs": [
        {
          "indexed": true,
          "internalType": "uint256",
          "name": "certificateId",
          "type": "uint256"
        },
        {
          "indexed": false,
          "internalType": "address",
          "name": "approver",
          "type": "address"
        }
      ],
      "name": "RevocationAppealApproved",
      "type": "event"
    },
    {
      "anonymous": false,
      "inputs": [
        {
          "indexed": true,
          "internalType": "uint256",
          "name": "certificateId",
          "type": "uint256"
        },
        {
          "indexed": false,
          "internalType": "address",
          "name": "student",
          "type": "address"
        },
        {
          "indexed": false,
          "internalType": "string",
          "name": "reason",
          "type": "string"
        }
      ],
      "name": "RevocationAppealed",
      "type": "event"
    },
    {
      "inputs": [
        {
          "internalType": "uint256",
          "name": "",
          "type": "uint256"
        }
      ],
      "name": "authorizedSigners",
      "outputs": [
        {
          "internalType": "address",
          "name": "",
          "type": "address"
        }
      ],
      "stateMutability": "view",
      "type": "function"
    },
    {
      "inputs": [],
      "name": "certificateCount",
      "outputs": [
        {
          "internalType": "uint256",
          "name": "",
          "type": "uint256"
        }
      ],
      "stateMutability": "view",
      "type": "function"
    },
    {
      "inputs": [
        {
          "internalType": "uint256",
          "name": "",
          "type": "uint256"
        }
      ],
      "name": "certificates",
      "outputs": [
        {
          "internalType": "string",
          "name": "studentName",
          "type": "string"
        },
        {
          "internalType": "string",
          "name": "courseName",
          "type": "string"
        },
        {
          "internalType": "string",
          "name": "institutionName",
          "type": "string"
        },
        {
          "internalType": "uint256",
          "name": "issueDate",
          "type": "uint256"
        },
        {
          "internalType": "bool",
          "name": "isRevoked",
          "type": "bool"
        },
        {
          "internalType": "address",
          "name": "owner",
          "type": "address"
        }
      ],
      "stateMutability": "view",
      "type": "function"
    },
    {
      "inputs": [
        {
          "internalType": "uint256",
          "name": "",
          "type": "uint256"
        }
      ],
      "name": "pendingCertificates",
      "outputs": [
        {
          "internalType": "string",
          "name": "studentName",
          "type": "string"
        },
        {
          "internalType": "string",
          "name": "courseName",
          "type": "string"
        },
        {
          "internalType": "string",
          "name": "institutionName",
          "type": "string"
        },
        {
          "internalType": "uint256",
          "name": "approvals",
          "type": "uint256"
        }
      ],
      "stateMutability": "view",
      "type": "function"
    },
    {
      "inputs": [],
      "name": "quorum",
      "outputs": [
        {
          "internalType": "uint256",
          "name": "",
          "type": "uint256"
        }
      ],
      "stateMutability": "view",
      "type": "function"
    },
    {
      "inputs": [
        {
          "internalType": "uint256",
          "name": "",
          "type": "uint256"
        }
      ],
      "name": "revocationAppeals",
      "outputs": [
        {
          "internalType": "address",
          "name": "student",
          "type": "address"
        },
        {
          "internalType": "string",
          "name": "reason",
          "type": "string"
        },
        {
          "internalType": "bool",
          "name": "resolved",
          "type": "bool"
        },
        {
          "internalType": "uint256",
          "name": "approvals",
          "type": "uint256"
        }
      ],
      "stateMutability": "view",
      "type": "function"
    },
    {
      "inputs": [
        {
          "internalType": "uint256",
          "name": "",
          "type": "uint256"
        }
      ],
      "name": "revocationReasons",
      "outputs": [
        {
          "internalType": "string",
          "name": "",
          "type": "string"
        }
      ],
      "stateMutability": "view",
      "type": "function"
    },
    {
      "inputs": [
        {
          "internalType": "string",
          "name": "studentName",
          "type": "string"
        },
        {
          "internalType": "string",
          "name": "courseName",
          "type": "string"
        },
        {
          "internalType": "string",
          "name": "institutionName",
          "type": "string"
        }
      ],
      "name": "proposeCertificate",
      "outputs": [
        {
          "internalType": "uint256",
          "name": "",
          "type": "uint256"
        }
      ],
      "stateMutability": "nonpayable",
      "type": "function"
    },
    {
      "inputs": [
        {
          "internalType": "uint256",
          "name": "certificateId",
          "type": "uint256"
        }
      ],
      "name": "approveCertificate",
      "outputs": [],
      "stateMutability": "nonpayable",
      "type": "function"
    },
    {
      "inputs": [
        {
          "internalType": "uint256",
          "name": "certificateId",
          "type": "uint256"
        },
        {
          "internalType": "string",
          "name": "reason",
          "type": "string"
        }
      ],
      "name": "revokeCertificate",
      "outputs": [],
      "stateMutability": "nonpayable",
      "type": "function"
    },
    {
      "inputs": [
        {
          "internalType": "uint256",
          "name": "certificateId",
          "type": "uint256"
        },
        {
          "internalType": "string",
          "name": "reason",
          "type": "string"
        }
      ],
      "name": "appealRevocation",
      "outputs": [],
      "stateMutability": "nonpayable",
      "type": "function"
    },
    {
      "inputs": [
        {
          "internalType": "uint256",
          "name": "certificateId",
          "type": "uint256"
        }
      ],
      "name": "approveRevocationAppeal",
      "outputs": [],
      "stateMutability": "nonpayable",
      "type": "function"
    },
    {
      "inputs": [
        {
          "internalType": "uint256",
          "name": "certificateId",
          "type": "uint256"
        },
        {
          "internalType": "address",
          "name": "newOwner",
          "type": "address"
        }
      ],
      "name": "transferCertificate",
      "outputs": [],
      "stateMutability": "nonpayable",
      "type": "function"
    },
    {
      "inputs": [
        {
          "internalType": "uint256",
          "name": "certificateId",
          "type": "uint256"
        }
      ],
      "name": "verifyCertificate",
      "outputs": [
        {
          "internalType": "bool",
          "name": "",
          "type": "bool"
        },
        {
          "internalType": "string",
          "name": "",
          "type": "string"
        }
      ],
      "stateMutability": "view",
      "type": "function"
    },
    {
      "inputs": [],
      "name": "viewSigners",
      "outputs": [
        {
          "internalType": "address[]",
          "name": "",
          "type": "address[]"
        }
      ],
      "stateMutability": "view",
      "type": "function"
    }
  ],
  "bytecode": "0x60806040523480156200001157600080fd5b50604051620032083803806200320883398181016040528101906200003791906200037d565b80825110156200007e576040517f08c379a000000000000000000000000000000000000000000000000000000000815260040162000075906200046a565b60405180910390fd5b816005908051906020019062000096929190620000a6565b508060068190555050506200048c565b82805482825590600052602060002090810192821562000122579160200282015b82811115620001215782518260006101000a81548173ffffffffffffffffffffffffffffffffffffffff021916908373ffffffffffffffffffffffffffffffffffffffff16021790555091602001919060010190620000c7565b5b50905062000131919062000135565b5090565b5b808211156200015057600081600090555060010162000136565b5090565b6000604051905090565b600080fd5b600080fd5b600080fd5b6000601f19601f8301169050919050565b7f4e487b7100000000000000000000000000000000000000000000000000000000600052604160045260246000fd5b620001b8826200016d565b810181811067ffffffffffffffff82111715620001da57620001d96200017e565b5b80604052505050565b6000620001ef62000154565b9050620001fd8282620001ad565b919050565b600067ffffffffffffffff82111562000220576200021f6200017e565b5b602082029050602081019050919050565b600080fd5b600073ffffffffffffffffffffffffffffffffffffffff82169050919050565b6000620002638262000236565b9050919050565b620002758162000256565b81146200028157600080fd5b50565b60008151905062000295816200026a565b92915050565b6000620002b2620002ac8462000202565b620001e3565b90508083825260208201905060208402830185811115620002d857620002d762000231565b5b835b81811015620003055780620002f0888262000284565b845260208401935050602081019050620002da565b5050509392505050565b600082601f83011262000327576200032662000168565b5b8151620003398482602086016200029b565b91505092915050565b6000819050919050565b620003578162000342565b81146200036357600080fd5b50565b60008151905062000377816200034c565b92915050565b600080604083850312156200039757620003966200015e565b5b600083015167ffffffffffffffff811115620003b857620003b762000163565b5b620003c6858286016200030f565b9250506020620003d98582860162000366565b9150509250929050565b600082825260208201905092915050565b7f51756f72756d2063616e6e6f742065786365656420746865206e756d6265722060008201527f6f66207369676e65727300000000000000000000000000000000000000000000602082015250565b600062000452602a83620003e3565b91506200045f82620003f4565b604082019050919050565b60006020820190508181036000830152620004858162000443565b9050919050565b612d6c806200049c6000396000f3fe608060405234801561001057600080fd5b50600436106100f55760003560e01c80637e3f180d11610097578063bf31065a11610066578063bf31065a146102b3578063cf3ae934146102d1578063e08b2ab6146102ed578063f402556814610320576100f5565b80637e3f180d1461021b578063a2b844601461024b578063b1466d1d1461027b578063b83ac12b14610297576100f5565b80634590053c116100d35780634590053c1461017957806352d7b89c146101ac57806358f9dc4a146101ca578063663b3e22146101e6576100f5565b80631692a942146100fa5780631703a0181461012b57806328571feb14610149575b600080fd5b610114600480360381019061010f9190611ec4565b61033c565b604051610122929190611fa5565b60405180910390f35b610133610670565b6040516101409190611fe4565b60405180910390f35b610163600480360381019061015e9190611ec4565b610676565b6040516101709190611fff565b60405180910390f35b610193600480360381019061018e9190611ec4565b610716565b6040516101a39493929190612062565b60405180910390f35b6101b46107fb565b6040516101c19190611fe4565b60405180910390f35b6101e460048036038101906101df91906121e3565b610801565b005b61020060048036038101906101fb9190611ec4565b6109e1565b6040516102129695949392919061223f565b60405180910390f35b610235600480360381019061023091906122b5565b610be2565b6040516102429190611fe4565b60405180910390f35b61026560048036038101906102609190611ec4565b610e41565b604051610272919061235c565b60405180910390f35b610295600480360381019061029091906121e3565b610e80565b005b6102b160048036038101906102ac9190611ec4565b611040565b005b6102bb61139b565b6040516102c89190612435565b60405180910390f35b6102eb60048036038101906102e69190612483565b611429565b005b61030760048036038101906103029190611ec4565b6115cd565b60405161031794939291906124c3565b60405180910390f35b61033a60048036038101906103359190611ec4565b611795565b005b600060606000600160008581526020019081526020016000206040518060c00160405290816000820180546103709061254c565b80601f016020809104026020016040519081016040528092919081815260200182805461039c9061254c565b80156103e95780601f106103be576101008083540402835291602001916103e9565b820191906000526020600020905b8154815290600101906020018083116103cc57829003601f168201915b505050505081526020016001820180546104029061254c565b80601f016020809104026020016040519081016040528092919081815260200182805461042e9061254c565b801561047b5780601f106104505761010080835404028352916020019161047b565b820191906000526020600020905b81548152906001019060200180831161045e57829003601f168201915b505050505081526020016002820180546104949061254c565b80601f01602080910402602001604051908101604052809291908181526020018280546104c09061254c565b801561050d5780601f106104e25761010080835404028352916020019161050d565b820191906000526020600020905b8154815290600101906020018083116104f057829003601f168201915b50505050508152602001600382015481526020016004820160009054906101000a900460ff161515151581526020016004820160019054906101000a900473ffffffffffffffffffffffffffffffffffffffff1673ffffffffffffffffffffffffffffffffffffffff1673ffffffffffffffffffffffffffffffffffffffff1681525050905060008160600151036105e15760006040518060400160405280601a81526020017f436572746966696361746520646f6573206e6f74206578697374000000000000815250925092505061066b565b80608001511561062d5760006040518060400160405280601c81526020017f436572746966696361746520686173206265656e207265766f6b656400000000815250925092505061066b565b60016040518060400160405280601481526020017f43657274696669636174652069732076616c696400000000000000000000000081525092509250505b915091565b60065481565b600360205280600052604060002060009150905080546106959061254c565b80601f01602080910402602001604051908101604052809291908181526020018280546106c19061254c565b801561070e5780601f106106e35761010080835404028352916020019161070e565b820191906000526020600020905b8154815290600101906020018083116106f157829003601f168201915b505050505081565b60046020528060005260406000206000915090508060000160009054906101000a900473ffffffffffffffffffffffffffffffffffffffff169080600101805461075f9061254c565b80601f016020809104026020016040519081016040528092919081815260200182805461078b9061254c565b80156107d85780601f106107ad576101008083540402835291602001916107d8565b820191906000526020600020905b8154815290600101906020018083116107bb57829003601f168201915b5050505050908060020160009054906101000a900460ff16908060030154905084565b60005481565b6001600083815260200190815260200160002060040160009054906101000a900460ff16610864576040517f08c379a000000000000000000000000000000000000000000000000000000000815260040161085b906125c9565b60405180910390fd5b3373ffffffffffffffffffffffffffffffffffffffff166001600084815260200190815260200160002060040160019054906101000a900473ffffffffffffffffffffffffffffffffffffffff1673ffffffffffffffffffffffffffffffffffffffff1614610908576040517f08c379a00000000000000000000000000000000000000000000000000000000081526004016108ff9061265b565b60405180910390fd5b6000600460008481526020019081526020016000209050338160000160006101000a81548173ffffffffffffffffffffffffffffffffffffffff021916908373ffffffffffffffffffffffffffffffffffffffff1602179055508181600101908051906020019061097a929190611d97565b5060008160020160006101000a81548160ff02191690831515021790555060008160030181905550827fb60711c1cd84d9058fc9648613b6ce64e888f10429a521d16bc8959ad1d3837933846040516109d492919061267b565b60405180910390a2505050565b6001602052806000526040600020600091509050806000018054610a049061254c565b80601f0160208091040260200160405190810160405280929190818152602001828054610a309061254c565b8015610a7d5780601f10610a5257610100808354040283529160200191610a7d565b820191906000526020600020905b815481529060010190602001808311610a6057829003601f168201915b505050505090806001018054610a929061254c565b80601f0160208091040260200160405190810160405280929190818152602001828054610abe9061254c565b8015610b0b5780601f10610ae057610100808354040283529160200191610b0b565b820191906000526020600020905b815481529060010190602001808311610aee57829003601f168201915b505050505090806002018054610b209061254c565b80601f0160208091040260200160405190810160405280929190818152602001828054610b4c9061254c565b8015610b995780601f10610b6e57610100808354040283529160200191610b99565b820191906000526020600020905b815481529060010190602001808311610b7c57829003601f168201915b5050505050908060030154908060040160009054906101000a900460ff16908060040160019054906101000a900473ffffffffffffffffffffffffffffffffffffffff16905086565b6000806000905060005b600580549050811015610c865760058181548110610c0d57610c0c6126ab565b5b9060005260206000200160009054906101000a900473ffffffffffffffffffffffffffffffffffffffff1673ffffffffffffffffffffffffffffffffffffffff163373ffffffffffffffffffffffffffffffffffffffff1603610c735760019150610c86565b8080610c7e90612709565b915050610bec565b5080610cc7576040517f08c379a0000000000000000000000000000000000000000000000000000000008152600401610cbe906127c3565b60405180910390fd5b6000805490506000600160008381526020019081526020016000206003015414610d26576040517f08c379a0000000000000000000000000000000000000000000000000000000008152600401610d1d9061282f565b60405180910390fd5b6000600260008381526020019081526020016000206003015414610d7f576040517f08c379a0000000000000000000000000000000000000000000000000000000008152600401610d769061289b565b60405180910390fd5b600060026000838152602001908152602001600020905086816000019080519060200190610dae929190611d97565b5085816001019080519060200190610dc7929190611d97565b5084816002019080519060200190610de0929190611d97565b50817f3dc64a4d0b4e22a596faa58f1ee03374ba556d0ba9ca4c7a10a94e7203b57885888888604051610e15939291906128bb565b60405180910390a2600080815480929190610e2f90612709565b91905055508193505050509392505050565b60058181548110610e5157600080fd5b906000526020600020016000915054906101000a900473ffffffffffffffffffffffffffffffffffffffff1681565b6000805b600580549050811015610f1e5760058181548110610ea557610ea46126ab565b5b9060005260206000200160009054906101000a900473ffffffffffffffffffffffffffffffffffffffff1673ffffffffffffffffffffffffffffffffffffffff163373ffffffffffffffffffffffffffffffffffffffff1603610f0b5760019150610f1e565b8080610f1690612709565b915050610e84565b5080610f5f576040517f08c379a0000000000000000000000000000000000000000000000000000000008152600401610f56906127c3565b60405180910390fd5b6000600160008581526020019081526020016000206003015403610fb8576040517f08c379a0000000000000000000000000000000000000000000000000000000008152600401610faf90612953565b60405180910390fd5b600180600085815260200190815260200160002060040160006101000a81548160ff0219169083151502179055508160036000858152602001908152602001600020908051906020019061100d929190611d97565b50827fefa6c5f47ac2523bb4db18032377bf7fdce0fa9d86eddcae1ca9bba38be615d760405160405180910390a2505050565b6000805b6005805490508110156110de5760058181548110611065576110646126ab565b5b9060005260206000200160009054906101000a900473ffffffffffffffffffffffffffffffffffffffff1673ffffffffffffffffffffffffffffffffffffffff163373ffffffffffffffffffffffffffffffffffffffff16036110cb57600191506110de565b80806110d690612709565b915050611044565b508061111f576040517f08c379a0000000000000000000000000000000000000000000000000000000008152600401611116906127c3565b60405180910390fd5b60006004600084815260200190815260200160002090508060020160009054906101000a900460ff1615611188576040517f08c379a000000000000000000000000000000000000000000000000000000000815260040161117f906129bf565b60405180910390fd5b8060040160003373ffffffffffffffffffffffffffffffffffffffff1673ffffffffffffffffffffffffffffffffffffffff16815260200190815260200160002060009054906101000a900460ff1615611217576040517f08c379a000000000000000000000000000000000000000000000000000000000815260040161120e90612a2b565b60405180910390fd5b60018160040160003373ffffffffffffffffffffffffffffffffffffffff1673ffffffffffffffffffffffffffffffffffffffff16815260200190815260200160002060006101000a81548160ff02191690831515021790555080600301600081548092919061128690612709565b9190505550827fe51db0697bc357e744370ac4fae922f2ab2e672a13ba46d7dd45f728dc2a260f336040516112bb919061235c565b60405180910390a26006548160030154106113965760006001600085815260200190815260200160002060040160006101000a81548160ff02191690831515021790555060046000848152602001908152602001600020600080820160006101000a81549073ffffffffffffffffffffffffffffffffffffffff021916905560018201600061134a9190611e1d565b6002820160006101000a81549060ff021916905560038201600090555050827f2ce774c0818390d2731ebc139c31197fe2136446b89a77a2b3dea14aed39a44460405160405180910390a25b505050565b6060600580548060200260200160405190810160405280929190818152602001828054801561141f57602002820191906000526020600020905b8160009054906101000a900473ffffffffffffffffffffffffffffffffffffffff1673ffffffffffffffffffffffffffffffffffffffff16815260200190600101908083116113d5575b5050505050905090565b3373ffffffffffffffffffffffffffffffffffffffff166001600084815260200190815260200160002060040160019054906101000a900473ffffffffffffffffffffffffffffffffffffffff1673ffffffffffffffffffffffffffffffffffffffff16146114cd576040517f08c379a00000000000000000000000000000000000000000000000000000000081526004016114c490612abd565b60405180910390fd5b600073ffffffffffffffffffffffffffffffffffffffff168173ffffffffffffffffffffffffffffffffffffffff160361153c576040517f08c379a000000000000000000000000000000000000000000000000000000000815260040161153390612b29565b60405180910390fd5b806001600084815260200190815260200160002060040160016101000a81548173ffffffffffffffffffffffffffffffffffffffff021916908373ffffffffffffffffffffffffffffffffffffffff160217905550817f7efe5ed05e355331fa85c1f51f1d524eed737a77e693a7475517b432a0fa4200826040516115c1919061235c565b60405180910390a25050565b60026020528060005260406000206000915090508060000180546115f09061254c565b80601f016020809104026020016040519081016040528092919081815260200182805461161c9061254c565b80156116695780601f1061163e57610100808354040283529160200191611669565b820191906000526020600020905b81548152906001019060200180831161164c57829003601f168201915b50505050509080600101805461167e9061254c565b80601f01602080910402602001604051908101604052809291908181526020018280546116aa9061254c565b80156116f75780601f106116cc576101008083540402835291602001916116f7565b820191906000526020600020905b8154815290600101906020018083116116da57829003601f168201915b50505050509080600201805461170c9061254c565b80601f01602080910402602001604051908101604052809291908181526020018280546117389061254c565b80156117855780601f1061175a57610100808354040283529160200191611785565b820191906000526020600020905b81548152906001019060200180831161176857829003601f168201915b5050505050908060030154905084565b6000805b60058054905081101561183357600581815481106117ba576117b96126ab565b5b9060005260206000200160009054906101000a900473ffffffffffffffffffffffffffffffffffffffff1673ffffffffffffffffffffffffffffffffffffffff163373ffffffffffffffffffffffffffffffffffffffff16036118205760019150611833565b808061182b90612709565b915050611799565b5080611874576040517f08c379a000000000000000000000000000000000000000000000000000000000815260040161186b906127c3565b60405180910390fd5b6000600260008481526020019081526020016000209050600081600001805461189c9061254c565b9050116118de576040517f08c379a00000000000000000000000000000000000000000000000000000000081526004016118d590612bbb565b60405180910390fd5b8060040160003373ffffffffffffffffffffffffffffffffffffffff1673ffffffffffffffffffffffffffffffffffffffff16815260200190815260200160002060009054906101000a900460ff161561196d576040517f08c379a000000000000000000000000000000000000000000000000000000000815260040161196490612c27565b60405180910390fd5b60018160040160003373ffffffffffffffffffffffffffffffffffffffff1673ffffffffffffffffffffffffffffffffffffffff16815260200190815260200160002060006101000a81548160ff0219169083151502179055508060030160008154809291906119dc90612709565b9190505550827f1ffd4b0c43de7f13bb9e8c45b1b35af572231837bf8a3c876e9eaf96a3cbd3d933604051611a11919061235c565b60405180910390a2600654816003015410611a3157611a308382611a36565b5b505050565b6040518060c00160405280826000018054611a509061254c565b80601f0160208091040260200160405190810160405280929190818152602001828054611a7c9061254c565b8015611ac95780601f10611a9e57610100808354040283529160200191611ac9565b820191906000526020600020905b815481529060010190602001808311611aac57829003601f168201915b50505050508152602001826001018054611ae29061254c565b80601f0160208091040260200160405190810160405280929190818152602001828054611b0e9061254c565b8015611b5b5780601f10611b3057610100808354040283529160200191611b5b565b820191906000526020600020905b815481529060010190602001808311611b3e57829003601f168201915b50505050508152602001826002018054611b749061254c565b80601f0160208091040260200160405190810160405280929190818152602001828054611ba09061254c565b8015611bed5780601f10611bc257610100808354040283529160200191611bed565b820191906000526020600020905b815481529060010190602001808311611bd057829003601f168201915b505050505081526020014281526020016000151581526020013373ffffffffffffffffffffffffffffffffffffffff16815250600160008481526020019081526020016000206000820151816000019080519060200190611c4f929190611d97565b506020820151816001019080519060200190611c6c929190611d97565b506040820151816002019080519060200190611c89929190611d97565b506060820151816003015560808201518160040160006101000a81548160ff02191690831515021790555060a08201518160040160016101000a81548173ffffffffffffffffffffffffffffffffffffffff021916908373ffffffffffffffffffffffffffffffffffffffff160217905550905050817f4e57ac5b81fc1a44db509326df0216df15c605a2549a654260898384fe52f8ae82600001836001018460020142604051611d3d9493929190612cdc565b60405180910390a26002600083815260200190815260200160002060008082016000611d699190611e1d565b600182016000611d799190611e1d565b600282016000611d899190611e1d565b600382016000905550505050565b828054611da39061254c565b90600052602060002090601f016020900481019282611dc55760008555611e0c565b82601f10611dde57805160ff1916838001178555611e0c565b82800160010185558215611e0c579182015b82811115611e0b578251825591602001919060010190611df0565b5b509050611e199190611e5d565b5090565b508054611e299061254c565b6000825580601f10611e3b5750611e5a565b601f016020900490600052602060002090810190611e599190611e5d565b5b50565b5b80821115611e76576000816000905550600101611e5e565b5090565b6000604051905090565b600080fd5b600080fd5b6000819050919050565b611ea181611e8e565b8114611eac57600080fd5b50565b600081359050611ebe81611e98565b92915050565b600060208284031215611eda57611ed9611e84565b5b6000611ee884828501611eaf565b91505092915050565b60008115159050919050565b611f0681611ef1565b82525050565b600081519050919050565b600082825260208201905092915050565b60005b83811015611f46578082015181840152602081019050611f2b565b83811115611f55576000848401525b50505050565b6000601f19601f8301169050919050565b6000611f7782611f0c565b611f818185611f17565b9350611f91818560208601611f28565b611f9a81611f5b565b840191505092915050565b6000604082019050611fba6000830185611efd565b8181036020830152611fcc8184611f6c565b90509392505050565b611fde81611e8e565b82525050565b6000602082019050611ff96000830184611fd5565b92915050565b600060208201905081810360008301526120198184611f6c565b905092915050565b600073ffffffffffffffffffffffffffffffffffffffff82169050919050565b600061204c82612021565b9050919050565b61205c81612041565b82525050565b60006080820190506120776000830187612053565b81810360208301526120898186611f6c565b90506120986040830185611efd565b6120a56060830184611fd5565b95945050505050565b600080fd5b600080fd5b7f4e487b7100000000000000000000000000000000000000000000000000000000600052604160045260246000fd5b6120f082611f5b565b810181811067ffffffffffffffff8211171561210f5761210e6120b8565b5b80604052505050565b6000612122611e7a565b905061212e82826120e7565b919050565b600067ffffffffffffffff82111561214e5761214d6120b8565b5b61215782611f5b565b9050602081019050919050565b82818337600083830152505050565b600061218661218184612133565b612118565b9050828152602081018484840111156121a2576121a16120b3565b5b6121ad848285612164565b509392505050565b600082601f8301126121ca576121c96120ae565b5b81356121da848260208601612173565b91505092915050565b600080604083850312156121fa576121f9611e84565b5b600061220885828601611eaf565b925050602083013567ffffffffffffffff81111561222957612228611e89565b5b612235858286016121b5565b9150509250929050565b600060c08201905081810360008301526122598189611f6c565b9050818103602083015261226d8188611f6c565b905081810360408301526122818187611f6c565b90506122906060830186611fd5565b61229d6080830185611efd565b6122aa60a0830184612053565b979650505050505050565b6000806000606084860312156122ce576122cd611e84565b5b600084013567ffffffffffffffff8111156122ec576122eb611e89565b5b6122f8868287016121b5565b935050602084013567ffffffffffffffff81111561231957612318611e89565b5b612325868287016121b5565b925050604084013567ffffffffffffffff81111561234657612345611e89565b5b612352868287016121b5565b9150509250925092565b60006020820190506123716000830184612053565b92915050565b600081519050919050565b600082825260208201905092915050565b6000819050602082019050919050565b6123ac81612041565b82525050565b60006123be83836123a3565b60208301905092915050565b6000602082019050919050565b60006123e282612377565b6123ec8185612382565b93506123f783612393565b8060005b8381101561242857815161240f88826123b2565b975061241a836123ca565b9250506001810190506123fb565b5085935050505092915050565b6000602082019050818103600083015261244f81846123d7565b905092915050565b61246081612041565b811461246b57600080fd5b50565b60008135905061247d81612457565b92915050565b6000806040838503121561249a57612499611e84565b5b60006124a885828601611eaf565b92505060206124b98582860161246e565b9150509250929050565b600060808201905081810360008301526124dd8187611f6c565b905081810360208301526124f18186611f6c565b905081810360408301526125058185611f6c565b90506125146060830184611fd5565b95945050505050565b7f4e487b7100000000000000000000000000000000000000000000000000000000600052602260045260246000fd5b6000600282049050600182168061256457607f821691505b6020821081036125775761257661251d565b5b50919050565b7f4365727469666963617465206973206e6f74207265766f6b6564000000000000600082015250565b60006125b3601a83611f17565b91506125be8261257d565b602082019050919050565b600060208201905081810360008301526125e2816125a6565b9050919050565b7f4f6e6c79206365727469666963617465206f776e65722063616e20617070656160008201527f6c00000000000000000000000000000000000000000000000000000000000000602082015250565b6000612645602183611f17565b9150612650826125e9565b604082019050919050565b6000602082019050818103600083015261267481612638565b9050919050565b60006040820190506126906000830185612053565b81810360208301526126a28184611f6c565b90509392505050565b7f4e487b7100000000000000000000000000000000000000000000000000000000600052603260045260246000fd5b7f4e487b7100000000000000000000000000000000000000000000000000000000600052601160045260246000fd5b600061271482611e8e565b91507fffffffffffffffffffffffffffffffffffffffffffffffffffffffffffffffff8203612746576127456126da565b5b600182019050919050565b7f4f6e6c7920617574686f72697a6564207369676e6572732063616e207065726660008201527f6f726d207468697320616374696f6e0000000000000000000000000000000000602082015250565b60006127ad602f83611f17565b91506127b882612751565b604082019050919050565b600060208201905081810360008301526127dc816127a0565b9050919050565b7f436572746966696361746520616c726561647920697373756564000000000000600082015250565b6000612819601a83611f17565b9150612824826127e3565b602082019050919050565b600060208201905081810360008301526128488161280c565b9050919050565b7f436572746966696361746520616c72656164792070726f706f73656400000000600082015250565b6000612885601c83611f17565b91506128908261284f565b602082019050919050565b600060208201905081810360008301526128b481612878565b9050919050565b600060608201905081810360008301526128d58186611f6c565b905081810360208301526128e98185611f6c565b905081810360408301526128fd8184611f6c565b9050949350505050565b7f436572746966696361746520646f6573206e6f74206578697374000000000000600082015250565b600061293d601a83611f17565b915061294882612907565b602082019050919050565b6000602082019050818103600083015261296c81612930565b9050919050565b7f41707065616c20616c7265616479207265736f6c766564000000000000000000600082015250565b60006129a9601783611f17565b91506129b482612973565b602082019050919050565b600060208201905081810360008301526129d88161299c565b9050919050565b7f416c726561647920617070726f76656400000000000000000000000000000000600082015250565b6000612a15601083611f17565b9150612a20826129df565b602082019050919050565b60006020820190508181036000830152612a4481612a08565b9050919050565b7f4f6e6c7920746865206365727469666963617465206f776e65722063616e207460008201527f72616e7366657200000000000000000000000000000000000000000000000000602082015250565b6000612aa7602783611f17565b9150612ab282612a4b565b604082019050919050565b60006020820190508181036000830152612ad681612a9a565b9050919050565b7f496e76616c696420616464726573730000000000000000000000000000000000600082015250565b6000612b13600f83611f17565b9150612b1e82612add565b602082019050919050565b60006020820190508181036000830152612b4281612b06565b9050919050565b7f43657274696669636174652070726f706f73616c20646f6573206e6f7420657860008201527f6973740000000000000000000000000000000000000000000000000000000000602082015250565b6000612ba5602383611f17565b9150612bb082612b49565b604082019050919050565b60006020820190508181036000830152612bd481612b98565b9050919050565b7f416c726561647920617070726f7665642062792074686973207369676e657200600082015250565b6000612c11601f83611f17565b9150612c1c82612bdb565b602082019050919050565b60006020820190508181036000830152612c4081612c04565b9050919050565b60008190508160005260206000209050919050565b60008154612c698161254c565b612c738186611f17565b94506001821660008114612c8e5760018114612ca057612cd3565b60ff1983168652602086019350612cd3565b612ca985612c47565b60005b83811015612ccb57815481890152600182019150602081019050612cac565b808801955050505b50505092915050565b60006080820190508181036000830152612cf68187612c5c565b90508181036020830152612d0a8186612c5c565b90508181036040830152612d1e8185612c5c565b9050612d2d6060830184611fd5565b9594505050505056fea26469706673582212202fd2bc8798b2bb448c7b87f585940a500fc1d87dbaaf49a10b644f960cb17a4964736f6c634300080d0033",
  "immutableReferences": {},
  "source": " // SPDX-License-Identifier: MIT\r\n\r\n// A decentralised system that stores academic credentials like certificates\r\n// Allows three kinds of users; institutions that issue certificates, certificate holders, verifiers\r\n// Institutions issue certificates and can revoke them in case of fraud\r\n// Employs Multisignature verification mechanism to either issue or revoke certificates\r\n// The contract also allows transfer of certifiate ownership,\r\n// enables students to move their certificates between accounts, which is useful if they lose access to their original wallet or migrate to a new digital identity\r\n// Also allows for one to appeal against unfair revocation of academic credentials\r\npragma solidity >0.4.0 <= 0.9.0;\r\n\r\ncontract CertificateVerification {\r\n    //State variables goes here\r\n    // Structure to represent a certificate\r\n    struct Certificate {\r\n        string studentName;\r\n        string courseName;\r\n        string institutionName;\r\n        uint issueDate;\r\n        bool isRevoked;\r\n        address owner;\r\n    }\r\n\r\n    // Structure to represent a pending certificate approval\r\n    struct PendingCertificate {\r\n        string studentName;\r\n        string courseName;\r\n        string institutionName;\r\n        uint approvals;\r\n    //this mapping  ensures that each signer can approve only once\r\n        mapping(address => bool) approvedBy;\r\n    }\r\n\r\n    struct RevocationAppeal {\r\n        address student;\r\n        string reason;\r\n        bool resolved;\r\n        uint approvals;\r\n        mapping(address => bool) approvedBy;\r\n    }\r\n\r\n    uint public certificateCount;\r\n\r\n    // Mapping of certificate IDs to Certificate structs\r\n    mapping(uint => Certificate) public certificates;\r\n\r\n    // Mapping of pending certificate IDs to PendingCertificate structs\r\n    mapping(uint => PendingCertificate) public pendingCertificates;\r\n\r\n    // Mapping of revocation reasons \r\n    mapping(uint => string) public revocationReasons;\r\n\r\n    // Mapping of revocation appeals\r\n    mapping(uint => RevocationAppeal) public revocationAppeals;\r\n\r\n    //Array to hold the addresses of  authorizedSigners\r\n    address[] public authorizedSigners;\r\n\r\n     //Minimum number of approvals required for a certificate to be issued\r\n    uint public quorum;\r\n\r\n    // Events\r\n    event CertificateIssued(\r\n        uint indexed certificateId,\r\n        string studentName,\r\n        string courseName,\r\n        string institutionName,\r\n        uint issueDate\r\n    );\r\n\r\n    event CertificateRevoked(uint indexed certificateId);\r\n\r\n    event CertificateProposed(\r\n        uint indexed certificateId,\r\n        string studentName,\r\n        string courseName,\r\n        string institutionName\r\n    );\r\n    event CertificateApproved(uint indexed certificateId, address approver);\r\n    event CertificateTransferred(uint indexed certificateId, address newOwner);\r\n    event RevocationAppealed(uint indexed certificateId, address student, string reason);\r\n    event RevocationAppealApproved(uint indexed certificateId, address approver);\r\n    event CertificateRestored(uint indexed certificateId);\r\n\r\n    // Modifier to restrict access to authorized signers\r\n    modifier onlyAuthorizedSigner() {\r\n        bool isSigner = false;\r\n        for (uint i = 0; i < authorizedSigners.length; i++) {\r\n            if (msg.sender == authorizedSigners[i]) {\r\n                isSigner = true;\r\n                break;\r\n            }\r\n        }\r\n        require(isSigner, \"Only authorized signers can perform this action\");\r\n        _;\r\n    }\r\n\r\n    // Constructor to set authorised signers and quorum\r\n    constructor(address[] memory _signers, uint _quorum) {\r\n        require(_signers.length >= _quorum, \"Quorum cannot exceed the number of signers\");\r\n        authorizedSigners = _signers;\r\n        quorum = _quorum;\r\n    }\r\n\r\n    // function getProductCount() public view returns(uint) {\r\n    //     return \r\n    // }\r\n\r\n    // Function to propose a certificate\r\n    function proposeCertificate(\r\n        string memory studentName,\r\n        string memory courseName,\r\n        string memory institutionName\r\n    ) public onlyAuthorizedSigner returns (uint) {\r\n\r\n        // Generate a unique certificate ID\r\n        uint certificateId = certificateCount;\r\n\r\n        // Ensure the certificate is not already issued or pending\r\n        require(certificates[certificateId].issueDate == 0, \"Certificate already issued\");\r\n        require(pendingCertificates[certificateId].approvals == 0, \"Certificate already proposed\");\r\n\r\n        // Represents a pending certificate\r\n        PendingCertificate storage pending = pendingCertificates[certificateId];\r\n        pending.studentName = studentName;\r\n        pending.courseName = courseName;\r\n        pending.institutionName = institutionName;\r\n\r\n        // Emit the CertificateProposed event\r\n        emit CertificateProposed(certificateId, studentName, courseName, institutionName);\r\n\r\n        certificateCount++;\r\n\r\n        return certificateId;\r\n    }\r\n\r\n    // Function to approve a certificate\r\n    function approveCertificate(uint certificateId) public onlyAuthorizedSigner {\r\n        PendingCertificate storage pending = pendingCertificates[certificateId];\r\n\r\n        // Ensure the certificate proposal exists\r\n        require(bytes(pending.studentName).length > 0, \"Certificate proposal does not exist\");\r\n\r\n        // Ensure the signer has not already approved\r\n        require(!pending.approvedBy[msg.sender], \"Already approved by this signer\");\r\n\r\n        // Record the approval\r\n        pending.approvedBy[msg.sender] = true;\r\n        pending.approvals++;\r\n\r\n        // Emit the CertificateApproved event\r\n        emit CertificateApproved(certificateId, msg.sender);\r\n\r\n        // If quorum is met, issue the certificate\r\n        if (pending.approvals >= quorum) {\r\n            _issueCertificate(certificateId, pending);\r\n        }\r\n    }\r\n\r\n    // Function to issue a certificate\r\n    function _issueCertificate(uint certificateId, PendingCertificate storage pending) internal {\r\n        certificates[certificateId] = Certificate({\r\n            studentName: pending.studentName,\r\n            courseName: pending.courseName,\r\n            institutionName: pending.institutionName,\r\n            issueDate: block.timestamp,\r\n            isRevoked: false,\r\n            owner: msg.sender\r\n        });\r\n\r\n        // Emit the CertificateIssued event\r\n        emit CertificateIssued(\r\n            certificateId,\r\n            pending.studentName,\r\n            pending.courseName,\r\n            pending.institutionName,\r\n            block.timestamp\r\n        );\r\n\r\n        // Clean up the pending certificate\r\n        delete pendingCertificates[certificateId];\r\n    }\r\n\r\n    // Function to revoke a certificate\r\n    function revokeCertificate(uint certificateId, string memory reason) public onlyAuthorizedSigner {\r\n    require(certificates[certificateId].issueDate != 0, \"Certificate does not exist\");\r\n    certificates[certificateId].isRevoked = true;\r\n    revocationReasons[certificateId] = reason;\r\n\r\n    emit CertificateRevoked(certificateId);\r\n}\r\n\r\n    // Function to allow a certificate owner to appeal incase of unfair revocation\r\n    function appealRevocation(uint certificateId, string memory reason) public {\r\n    require(certificates[certificateId].isRevoked, \"Certificate is not revoked\");\r\n    require(certificates[certificateId].owner == msg.sender, \"Only certificate owner can appeal\");\r\n\r\n    \r\n    RevocationAppeal storage appeal = revocationAppeals[certificateId];\r\n    appeal.student = msg.sender;\r\n    appeal.reason = reason;\r\n    appeal.resolved = false;\r\n    appeal.approvals = 0;\r\n\r\n    emit RevocationAppealed(certificateId, msg.sender, reason);\r\n}\r\n\r\n    // Function to approve a revocked certificate incase of any appeal\r\n    function approveRevocationAppeal(uint certificateId) public onlyAuthorizedSigner {\r\n        RevocationAppeal storage appeal = revocationAppeals[certificateId];\r\n        require(!appeal.resolved, \"Appeal already resolved\");\r\n        require(!appeal.approvedBy[msg.sender], \"Already approved\");\r\n\r\n        appeal.approvedBy[msg.sender] = true;\r\n        appeal.approvals++;\r\n        emit RevocationAppealApproved(certificateId, msg.sender);\r\n\r\n        if (appeal.approvals >= quorum) {\r\n            certificates[certificateId].isRevoked = false;\r\n            delete revocationAppeals[certificateId];\r\n            emit CertificateRestored(certificateId);\r\n        }\r\n    }\r\n\r\n     // Function to transfer ownership of a certificate\r\n    function transferCertificate(uint certificateId, address newOwner) public {\r\n        require(certificates[certificateId].owner == msg.sender, \"Only the certificate owner can transfer\");\r\n        require(newOwner != address(0), \"Invalid address\");\r\n        certificates[certificateId].owner = newOwner;\r\n        emit CertificateTransferred(certificateId, newOwner);\r\n    }\r\n\r\n\r\n    // Function to verify a certificate\r\n    function verifyCertificate(uint certificateId) public view returns (bool, string memory) {\r\n        Certificate memory cert = certificates[certificateId];\r\n        if (cert.issueDate == 0) {\r\n            return (false, \"Certificate does not exist\");\r\n        }\r\n        if (cert.isRevoked) {\r\n            return (false, \"Certificate has been revoked\");\r\n        }\r\n        return (true, \"Certificate is valid\");\r\n    }\r\n\r\n    function viewSigners() public view returns (address[] memory) {\r\n        return authorizedSigners;\r\n    }\r\n}\r\n",
  "sourcePath": "C:\\Users\\Charles\\Documents\\TrustCertify\\contracts\\contracts\\CertificateVerification.sol",
  "compiler": {
    "name": "solc",
    "version": "0.8.13+commit.abaa5c0e.Emscripten.clang"
  },
  "schemaVersion": "3.4.16",
  "updatedAt": "2025-03-21T03:54:35.918Z",
  "devdoc": {
    "kind": "dev",
    "methods": {},
    "version": 1
  },
  "userdoc": {
    "kind": "user",
    "methods": {},
    "version": 1
  }
}