{
  "contractName": "CertificateVerification",
  "abi": [
    {
      "inputs": [
        {
          "internalType": "address[]",
          "name": "_signers",
          "type": "address[]"
        },
        {
          "internalType": "uint256",
          "name": "_quorum",
          "type": "uint256"
        }
      ],
      "stateMutability": "nonpayable",
      "type": "constructor"
    },
    {
      "anonymous": false,
      "inputs": [
        {
          "indexed": true,
          "internalType": "uint256",
          "name": "certificateId",
          "type": "uint256"
        },
        {
          "indexed": false,
          "internalType": "address",
          "name": "approver",
          "type": "address"
        }
      ],
      "name": "CertificateApproved",
      "type": "event"
    },
    {
      "anonymous": false,
      "inputs": [
        {
          "indexed": true,
          "internalType": "uint256",
          "name": "certificateId",
          "type": "uint256"
        },
        {
          "indexed": false,
          "internalType": "string",
          "name": "studentName",
          "type": "string"
        },
        {
          "indexed": false,
          "internalType": "string",
          "name": "courseName",
          "type": "string"
        },
        {
          "indexed": false,
          "internalType": "string",
          "name": "institutionName",
          "type": "string"
        },
        {
          "indexed": false,
          "internalType": "uint256",
          "name": "issueDate",
          "type": "uint256"
        }
      ],
      "name": "CertificateIssued",
      "type": "event"
    },
    {
      "anonymous": false,
      "inputs": [
        {
          "indexed": true,
          "internalType": "uint256",
          "name": "certificateId",
          "type": "uint256"
        },
        {
          "indexed": false,
          "internalType": "string",
          "name": "studentName",
          "type": "string"
        },
        {
          "indexed": false,
          "internalType": "string",
          "name": "courseName",
          "type": "string"
        },
        {
          "indexed": false,
          "internalType": "string",
          "name": "institutionName",
          "type": "string"
        }
      ],
      "name": "CertificateProposed",
      "type": "event"
    },
    {
      "anonymous": false,
      "inputs": [
        {
          "indexed": true,
          "internalType": "uint256",
          "name": "certificateId",
          "type": "uint256"
        }
      ],
      "name": "CertificateRestored",
      "type": "event"
    },
    {
      "anonymous": false,
      "inputs": [
        {
          "indexed": true,
          "internalType": "uint256",
          "name": "certificateId",
          "type": "uint256"
        }
      ],
      "name": "CertificateRevoked",
      "type": "event"
    },
    {
      "anonymous": false,
      "inputs": [
        {
          "indexed": true,
          "internalType": "uint256",
          "name": "certificateId",
          "type": "uint256"
        },
        {
          "indexed": false,
          "internalType": "address",
          "name": "newOwner",
          "type": "address"
        }
      ],
      "name": "CertificateTransferred",
      "type": "event"
    },
    {
      "anonymous": false,
      "inputs": [
        {
          "indexed": true,
          "internalType": "uint256",
          "name": "certificateId",
          "type": "uint256"
        },
        {
          "indexed": false,
          "internalType": "address",
          "name": "approver",
          "type": "address"
        }
      ],
      "name": "RevocationAppealApproved",
      "type": "event"
    },
    {
      "anonymous": false,
      "inputs": [
        {
          "indexed": true,
          "internalType": "uint256",
          "name": "certificateId",
          "type": "uint256"
        },
        {
          "indexed": false,
          "internalType": "address",
          "name": "student",
          "type": "address"
        },
        {
          "indexed": false,
          "internalType": "string",
          "name": "reason",
          "type": "string"
        }
      ],
      "name": "RevocationAppealed",
      "type": "event"
    },
    {
      "inputs": [
        {
          "internalType": "uint256",
          "name": "",
          "type": "uint256"
        }
      ],
      "name": "authorizedSigners",
      "outputs": [
        {
          "internalType": "address",
          "name": "",
          "type": "address"
        }
      ],
      "stateMutability": "view",
      "type": "function",
      "constant": true
    },
    {
      "inputs": [],
      "name": "certificateCount",
      "outputs": [
        {
          "internalType": "uint256",
          "name": "",
          "type": "uint256"
        }
      ],
      "stateMutability": "view",
      "type": "function",
      "constant": true
    },
    {
      "inputs": [
        {
          "internalType": "uint256",
          "name": "",
          "type": "uint256"
        }
      ],
      "name": "certificates",
      "outputs": [
        {
          "internalType": "string",
          "name": "studentName",
          "type": "string"
        },
        {
          "internalType": "string",
          "name": "courseName",
          "type": "string"
        },
        {
          "internalType": "string",
          "name": "institutionName",
          "type": "string"
        },
        {
          "internalType": "uint256",
          "name": "issueDate",
          "type": "uint256"
        },
        {
          "internalType": "bool",
          "name": "isRevoked",
          "type": "bool"
        },
        {
          "internalType": "address",
          "name": "owner",
          "type": "address"
        }
      ],
      "stateMutability": "view",
      "type": "function",
      "constant": true
    },
    {
      "inputs": [
        {
          "internalType": "uint256",
          "name": "",
          "type": "uint256"
        }
      ],
      "name": "pendingCertificates",
      "outputs": [
        {
          "internalType": "string",
          "name": "studentName",
          "type": "string"
        },
        {
          "internalType": "string",
          "name": "courseName",
          "type": "string"
        },
        {
          "internalType": "string",
          "name": "institutionName",
          "type": "string"
        },
        {
          "internalType": "uint256",
          "name": "approvals",
          "type": "uint256"
        }
      ],
      "stateMutability": "view",
      "type": "function",
      "constant": true
    },
    {
      "inputs": [],
      "name": "quorum",
      "outputs": [
        {
          "internalType": "uint256",
          "name": "",
          "type": "uint256"
        }
      ],
      "stateMutability": "view",
      "type": "function",
      "constant": true
    },
    {
      "inputs": [
        {
          "internalType": "uint256",
          "name": "",
          "type": "uint256"
        }
      ],
      "name": "revocationAppeals",
      "outputs": [
        {
          "internalType": "address",
          "name": "student",
          "type": "address"
        },
        {
          "internalType": "string",
          "name": "reason",
          "type": "string"
        },
        {
          "internalType": "bool",
          "name": "resolved",
          "type": "bool"
        },
        {
          "internalType": "uint256",
          "name": "approvals",
          "type": "uint256"
        }
      ],
      "stateMutability": "view",
      "type": "function",
      "constant": true
    },
    {
      "inputs": [
        {
          "internalType": "uint256",
          "name": "",
          "type": "uint256"
        }
      ],
      "name": "revocationReasons",
      "outputs": [
        {
          "internalType": "string",
          "name": "",
          "type": "string"
        }
      ],
      "stateMutability": "view",
      "type": "function",
      "constant": true
    },
    {
      "inputs": [
        {
          "internalType": "string",
          "name": "studentName",
          "type": "string"
        },
        {
          "internalType": "string",
          "name": "courseName",
          "type": "string"
        },
        {
          "internalType": "string",
          "name": "institutionName",
          "type": "string"
        }
      ],
      "name": "proposeCertificate",
      "outputs": [
        {
          "internalType": "uint256",
          "name": "",
          "type": "uint256"
        }
      ],
      "stateMutability": "nonpayable",
      "type": "function"
    },
    {
      "inputs": [
        {
          "internalType": "uint256",
          "name": "certificateId",
          "type": "uint256"
        }
      ],
      "name": "approveCertificate",
      "outputs": [],
      "stateMutability": "nonpayable",
      "type": "function"
    },
    {
      "inputs": [
        {
          "internalType": "uint256",
          "name": "certificateId",
          "type": "uint256"
        },
        {
          "internalType": "string",
          "name": "reason",
          "type": "string"
        }
      ],
      "name": "revokeCertificate",
      "outputs": [],
      "stateMutability": "nonpayable",
      "type": "function"
    },
    {
      "inputs": [
        {
          "internalType": "uint256",
          "name": "certificateId",
          "type": "uint256"
        },
        {
          "internalType": "string",
          "name": "reason",
          "type": "string"
        }
      ],
      "name": "appealRevocation",
      "outputs": [],
      "stateMutability": "nonpayable",
      "type": "function"
    },
    {
      "inputs": [
        {
          "internalType": "uint256",
          "name": "certificateId",
          "type": "uint256"
        }
      ],
      "name": "approveRevocationAppeal",
      "outputs": [],
      "stateMutability": "nonpayable",
      "type": "function"
    },
    {
      "inputs": [
        {
          "internalType": "uint256",
          "name": "certificateId",
          "type": "uint256"
        },
        {
          "internalType": "address",
          "name": "newOwner",
          "type": "address"
        }
      ],
      "name": "transferCertificate",
      "outputs": [],
      "stateMutability": "nonpayable",
      "type": "function"
    },
    {
      "inputs": [
        {
          "internalType": "uint256",
          "name": "certificateId",
          "type": "uint256"
        }
      ],
      "name": "verifyCertificate",
      "outputs": [
        {
          "internalType": "bool",
          "name": "",
          "type": "bool"
        },
        {
          "internalType": "string",
          "name": "",
          "type": "string"
        }
      ],
      "stateMutability": "view",
      "type": "function",
      "constant": true
    }
  ],
  "bytecode": "0x60806040523480156200001157600080fd5b50604051620030713803806200307183398181016040528101906200003791906200037d565b80825110156200007e576040517f08c379a000000000000000000000000000000000000000000000000000000000815260040162000075906200046a565b60405180910390fd5b816005908051906020019062000096929190620000a6565b508060068190555050506200048c565b82805482825590600052602060002090810192821562000122579160200282015b82811115620001215782518260006101000a81548173ffffffffffffffffffffffffffffffffffffffff021916908373ffffffffffffffffffffffffffffffffffffffff16021790555091602001919060010190620000c7565b5b50905062000131919062000135565b5090565b5b808211156200015057600081600090555060010162000136565b5090565b6000604051905090565b600080fd5b600080fd5b600080fd5b6000601f19601f8301169050919050565b7f4e487b7100000000000000000000000000000000000000000000000000000000600052604160045260246000fd5b620001b8826200016d565b810181811067ffffffffffffffff82111715620001da57620001d96200017e565b5b80604052505050565b6000620001ef62000154565b9050620001fd8282620001ad565b919050565b600067ffffffffffffffff82111562000220576200021f6200017e565b5b602082029050602081019050919050565b600080fd5b600073ffffffffffffffffffffffffffffffffffffffff82169050919050565b6000620002638262000236565b9050919050565b620002758162000256565b81146200028157600080fd5b50565b60008151905062000295816200026a565b92915050565b6000620002b2620002ac8462000202565b620001e3565b90508083825260208201905060208402830185811115620002d857620002d762000231565b5b835b81811015620003055780620002f0888262000284565b845260208401935050602081019050620002da565b5050509392505050565b600082601f83011262000327576200032662000168565b5b8151620003398482602086016200029b565b91505092915050565b6000819050919050565b620003578162000342565b81146200036357600080fd5b50565b60008151905062000377816200034c565b92915050565b600080604083850312156200039757620003966200015e565b5b600083015167ffffffffffffffff811115620003b857620003b762000163565b5b620003c6858286016200030f565b9250506020620003d98582860162000366565b9150509250929050565b600082825260208201905092915050565b7f51756f72756d2063616e6e6f742065786365656420746865206e756d6265722060008201527f6f66207369676e65727300000000000000000000000000000000000000000000602082015250565b600062000452602a83620003e3565b91506200045f82620003f4565b604082019050919050565b60006020820190508181036000830152620004858162000443565b9050919050565b612bd5806200049c6000396000f3fe608060405234801561001057600080fd5b50600436106100ea5760003560e01c80637e3f180d1161008c578063b83ac12b11610066578063b83ac12b1461028c578063cf3ae934146102a8578063e08b2ab6146102c4578063f4025568146102f7576100ea565b80637e3f180d14610210578063a2b8446014610240578063b1466d1d14610270576100ea565b80634590053c116100c85780634590053c1461016e57806352d7b89c146101a157806358f9dc4a146101bf578063663b3e22146101db576100ea565b80631692a942146100ef5780631703a0181461012057806328571feb1461013e575b600080fd5b61010960048036038101906101049190611e0d565b610313565b604051610117929190611eee565b60405180910390f35b610128610647565b6040516101359190611f2d565b60405180910390f35b61015860048036038101906101539190611e0d565b61064d565b6040516101659190611f48565b60405180910390f35b61018860048036038101906101839190611e0d565b6106ed565b6040516101989493929190611fab565b60405180910390f35b6101a96107d2565b6040516101b69190611f2d565b60405180910390f35b6101d960048036038101906101d4919061212c565b6107d8565b005b6101f560048036038101906101f09190611e0d565b6109b8565b60405161020796959493929190612188565b60405180910390f35b61022a600480360381019061022591906121fe565b610bb9565b6040516102379190611f2d565b60405180910390f35b61025a60048036038101906102559190611e0d565b610e18565b60405161026791906122a5565b60405180910390f35b61028a6004803603810190610285919061212c565b610e57565b005b6102a660048036038101906102a19190611e0d565b611017565b005b6102c260048036038101906102bd91906122ec565b611372565b005b6102de60048036038101906102d99190611e0d565b611516565b6040516102ee949392919061232c565b60405180910390f35b610311600480360381019061030c9190611e0d565b6116de565b005b600060606000600160008581526020019081526020016000206040518060c0016040529081600082018054610347906123b5565b80601f0160208091040260200160405190810160405280929190818152602001828054610373906123b5565b80156103c05780601f10610395576101008083540402835291602001916103c0565b820191906000526020600020905b8154815290600101906020018083116103a357829003601f168201915b505050505081526020016001820180546103d9906123b5565b80601f0160208091040260200160405190810160405280929190818152602001828054610405906123b5565b80156104525780601f1061042757610100808354040283529160200191610452565b820191906000526020600020905b81548152906001019060200180831161043557829003601f168201915b5050505050815260200160028201805461046b906123b5565b80601f0160208091040260200160405190810160405280929190818152602001828054610497906123b5565b80156104e45780601f106104b9576101008083540402835291602001916104e4565b820191906000526020600020905b8154815290600101906020018083116104c757829003601f168201915b50505050508152602001600382015481526020016004820160009054906101000a900460ff161515151581526020016004820160019054906101000a900473ffffffffffffffffffffffffffffffffffffffff1673ffffffffffffffffffffffffffffffffffffffff1673ffffffffffffffffffffffffffffffffffffffff1681525050905060008160600151036105b85760006040518060400160405280601a81526020017f436572746966696361746520646f6573206e6f742065786973740000000000008152509250925050610642565b8060800151156106045760006040518060400160405280601c81526020017f436572746966696361746520686173206265656e207265766f6b6564000000008152509250925050610642565b60016040518060400160405280601481526020017f43657274696669636174652069732076616c696400000000000000000000000081525092509250505b915091565b60065481565b6003602052806000526040600020600091509050805461066c906123b5565b80601f0160208091040260200160405190810160405280929190818152602001828054610698906123b5565b80156106e55780601f106106ba576101008083540402835291602001916106e5565b820191906000526020600020905b8154815290600101906020018083116106c857829003601f168201915b505050505081565b60046020528060005260406000206000915090508060000160009054906101000a900473ffffffffffffffffffffffffffffffffffffffff1690806001018054610736906123b5565b80601f0160208091040260200160405190810160405280929190818152602001828054610762906123b5565b80156107af5780601f10610784576101008083540402835291602001916107af565b820191906000526020600020905b81548152906001019060200180831161079257829003601f168201915b5050505050908060020160009054906101000a900460ff16908060030154905084565b60005481565b6001600083815260200190815260200160002060040160009054906101000a900460ff1661083b576040517f08c379a000000000000000000000000000000000000000000000000000000000815260040161083290612432565b60405180910390fd5b3373ffffffffffffffffffffffffffffffffffffffff166001600084815260200190815260200160002060040160019054906101000a900473ffffffffffffffffffffffffffffffffffffffff1673ffffffffffffffffffffffffffffffffffffffff16146108df576040517f08c379a00000000000000000000000000000000000000000000000000000000081526004016108d6906124c4565b60405180910390fd5b6000600460008481526020019081526020016000209050338160000160006101000a81548173ffffffffffffffffffffffffffffffffffffffff021916908373ffffffffffffffffffffffffffffffffffffffff16021790555081816001019080519060200190610951929190611ce0565b5060008160020160006101000a81548160ff02191690831515021790555060008160030181905550827fb60711c1cd84d9058fc9648613b6ce64e888f10429a521d16bc8959ad1d3837933846040516109ab9291906124e4565b60405180910390a2505050565b60016020528060005260406000206000915090508060000180546109db906123b5565b80601f0160208091040260200160405190810160405280929190818152602001828054610a07906123b5565b8015610a545780601f10610a2957610100808354040283529160200191610a54565b820191906000526020600020905b815481529060010190602001808311610a3757829003601f168201915b505050505090806001018054610a69906123b5565b80601f0160208091040260200160405190810160405280929190818152602001828054610a95906123b5565b8015610ae25780601f10610ab757610100808354040283529160200191610ae2565b820191906000526020600020905b815481529060010190602001808311610ac557829003601f168201915b505050505090806002018054610af7906123b5565b80601f0160208091040260200160405190810160405280929190818152602001828054610b23906123b5565b8015610b705780601f10610b4557610100808354040283529160200191610b70565b820191906000526020600020905b815481529060010190602001808311610b5357829003601f168201915b5050505050908060030154908060040160009054906101000a900460ff16908060040160019054906101000a900473ffffffffffffffffffffffffffffffffffffffff16905086565b6000806000905060005b600580549050811015610c5d5760058181548110610be457610be3612514565b5b9060005260206000200160009054906101000a900473ffffffffffffffffffffffffffffffffffffffff1673ffffffffffffffffffffffffffffffffffffffff163373ffffffffffffffffffffffffffffffffffffffff1603610c4a5760019150610c5d565b8080610c5590612572565b915050610bc3565b5080610c9e576040517f08c379a0000000000000000000000000000000000000000000000000000000008152600401610c959061262c565b60405180910390fd5b6000805490506000600160008381526020019081526020016000206003015414610cfd576040517f08c379a0000000000000000000000000000000000000000000000000000000008152600401610cf490612698565b60405180910390fd5b6000600260008381526020019081526020016000206003015414610d56576040517f08c379a0000000000000000000000000000000000000000000000000000000008152600401610d4d90612704565b60405180910390fd5b600060026000838152602001908152602001600020905086816000019080519060200190610d85929190611ce0565b5085816001019080519060200190610d9e929190611ce0565b5084816002019080519060200190610db7929190611ce0565b50817f3dc64a4d0b4e22a596faa58f1ee03374ba556d0ba9ca4c7a10a94e7203b57885888888604051610dec93929190612724565b60405180910390a2600080815480929190610e0690612572565b91905055508193505050509392505050565b60058181548110610e2857600080fd5b906000526020600020016000915054906101000a900473ffffffffffffffffffffffffffffffffffffffff1681565b6000805b600580549050811015610ef55760058181548110610e7c57610e7b612514565b5b9060005260206000200160009054906101000a900473ffffffffffffffffffffffffffffffffffffffff1673ffffffffffffffffffffffffffffffffffffffff163373ffffffffffffffffffffffffffffffffffffffff1603610ee25760019150610ef5565b8080610eed90612572565b915050610e5b565b5080610f36576040517f08c379a0000000000000000000000000000000000000000000000000000000008152600401610f2d9061262c565b60405180910390fd5b6000600160008581526020019081526020016000206003015403610f8f576040517f08c379a0000000000000000000000000000000000000000000000000000000008152600401610f86906127bc565b60405180910390fd5b600180600085815260200190815260200160002060040160006101000a81548160ff02191690831515021790555081600360008581526020019081526020016000209080519060200190610fe4929190611ce0565b50827fefa6c5f47ac2523bb4db18032377bf7fdce0fa9d86eddcae1ca9bba38be615d760405160405180910390a2505050565b6000805b6005805490508110156110b5576005818154811061103c5761103b612514565b5b9060005260206000200160009054906101000a900473ffffffffffffffffffffffffffffffffffffffff1673ffffffffffffffffffffffffffffffffffffffff163373ffffffffffffffffffffffffffffffffffffffff16036110a257600191506110b5565b80806110ad90612572565b91505061101b565b50806110f6576040517f08c379a00000000000000000000000000000000000000000000000000000000081526004016110ed9061262c565b60405180910390fd5b60006004600084815260200190815260200160002090508060020160009054906101000a900460ff161561115f576040517f08c379a000000000000000000000000000000000000000000000000000000000815260040161115690612828565b60405180910390fd5b8060040160003373ffffffffffffffffffffffffffffffffffffffff1673ffffffffffffffffffffffffffffffffffffffff16815260200190815260200160002060009054906101000a900460ff16156111ee576040517f08c379a00000000000000000000000000000000000000000000000000000000081526004016111e590612894565b60405180910390fd5b60018160040160003373ffffffffffffffffffffffffffffffffffffffff1673ffffffffffffffffffffffffffffffffffffffff16815260200190815260200160002060006101000a81548160ff02191690831515021790555080600301600081548092919061125d90612572565b9190505550827fe51db0697bc357e744370ac4fae922f2ab2e672a13ba46d7dd45f728dc2a260f3360405161129291906122a5565b60405180910390a260065481600301541061136d5760006001600085815260200190815260200160002060040160006101000a81548160ff02191690831515021790555060046000848152602001908152602001600020600080820160006101000a81549073ffffffffffffffffffffffffffffffffffffffff02191690556001820160006113219190611d66565b6002820160006101000a81549060ff021916905560038201600090555050827f2ce774c0818390d2731ebc139c31197fe2136446b89a77a2b3dea14aed39a44460405160405180910390a25b505050565b3373ffffffffffffffffffffffffffffffffffffffff166001600084815260200190815260200160002060040160019054906101000a900473ffffffffffffffffffffffffffffffffffffffff1673ffffffffffffffffffffffffffffffffffffffff1614611416576040517f08c379a000000000000000000000000000000000000000000000000000000000815260040161140d90612926565b60405180910390fd5b600073ffffffffffffffffffffffffffffffffffffffff168173ffffffffffffffffffffffffffffffffffffffff1603611485576040517f08c379a000000000000000000000000000000000000000000000000000000000815260040161147c90612992565b60405180910390fd5b806001600084815260200190815260200160002060040160016101000a81548173ffffffffffffffffffffffffffffffffffffffff021916908373ffffffffffffffffffffffffffffffffffffffff160217905550817f7efe5ed05e355331fa85c1f51f1d524eed737a77e693a7475517b432a0fa42008260405161150a91906122a5565b60405180910390a25050565b6002602052806000526040600020600091509050806000018054611539906123b5565b80601f0160208091040260200160405190810160405280929190818152602001828054611565906123b5565b80156115b25780601f10611587576101008083540402835291602001916115b2565b820191906000526020600020905b81548152906001019060200180831161159557829003601f168201915b5050505050908060010180546115c7906123b5565b80601f01602080910402602001604051908101604052809291908181526020018280546115f3906123b5565b80156116405780601f1061161557610100808354040283529160200191611640565b820191906000526020600020905b81548152906001019060200180831161162357829003601f168201915b505050505090806002018054611655906123b5565b80601f0160208091040260200160405190810160405280929190818152602001828054611681906123b5565b80156116ce5780601f106116a3576101008083540402835291602001916116ce565b820191906000526020600020905b8154815290600101906020018083116116b157829003601f168201915b5050505050908060030154905084565b6000805b60058054905081101561177c576005818154811061170357611702612514565b5b9060005260206000200160009054906101000a900473ffffffffffffffffffffffffffffffffffffffff1673ffffffffffffffffffffffffffffffffffffffff163373ffffffffffffffffffffffffffffffffffffffff1603611769576001915061177c565b808061177490612572565b9150506116e2565b50806117bd576040517f08c379a00000000000000000000000000000000000000000000000000000000081526004016117b49061262c565b60405180910390fd5b600060026000848152602001908152602001600020905060008160000180546117e5906123b5565b905011611827576040517f08c379a000000000000000000000000000000000000000000000000000000000815260040161181e90612a24565b60405180910390fd5b8060040160003373ffffffffffffffffffffffffffffffffffffffff1673ffffffffffffffffffffffffffffffffffffffff16815260200190815260200160002060009054906101000a900460ff16156118b6576040517f08c379a00000000000000000000000000000000000000000000000000000000081526004016118ad90612a90565b60405180910390fd5b60018160040160003373ffffffffffffffffffffffffffffffffffffffff1673ffffffffffffffffffffffffffffffffffffffff16815260200190815260200160002060006101000a81548160ff02191690831515021790555080600301600081548092919061192590612572565b9190505550827f1ffd4b0c43de7f13bb9e8c45b1b35af572231837bf8a3c876e9eaf96a3cbd3d93360405161195a91906122a5565b60405180910390a260065481600301541061197a57611979838261197f565b5b505050565b6040518060c00160405280826000018054611999906123b5565b80601f01602080910402602001604051908101604052809291908181526020018280546119c5906123b5565b8015611a125780601f106119e757610100808354040283529160200191611a12565b820191906000526020600020905b8154815290600101906020018083116119f557829003601f168201915b50505050508152602001826001018054611a2b906123b5565b80601f0160208091040260200160405190810160405280929190818152602001828054611a57906123b5565b8015611aa45780601f10611a7957610100808354040283529160200191611aa4565b820191906000526020600020905b815481529060010190602001808311611a8757829003601f168201915b50505050508152602001826002018054611abd906123b5565b80601f0160208091040260200160405190810160405280929190818152602001828054611ae9906123b5565b8015611b365780601f10611b0b57610100808354040283529160200191611b36565b820191906000526020600020905b815481529060010190602001808311611b1957829003601f168201915b505050505081526020014281526020016000151581526020013373ffffffffffffffffffffffffffffffffffffffff16815250600160008481526020019081526020016000206000820151816000019080519060200190611b98929190611ce0565b506020820151816001019080519060200190611bb5929190611ce0565b506040820151816002019080519060200190611bd2929190611ce0565b506060820151816003015560808201518160040160006101000a81548160ff02191690831515021790555060a08201518160040160016101000a81548173ffffffffffffffffffffffffffffffffffffffff021916908373ffffffffffffffffffffffffffffffffffffffff160217905550905050817f4e57ac5b81fc1a44db509326df0216df15c605a2549a654260898384fe52f8ae82600001836001018460020142604051611c869493929190612b45565b60405180910390a26002600083815260200190815260200160002060008082016000611cb29190611d66565b600182016000611cc29190611d66565b600282016000611cd29190611d66565b600382016000905550505050565b828054611cec906123b5565b90600052602060002090601f016020900481019282611d0e5760008555611d55565b82601f10611d2757805160ff1916838001178555611d55565b82800160010185558215611d55579182015b82811115611d54578251825591602001919060010190611d39565b5b509050611d629190611da6565b5090565b508054611d72906123b5565b6000825580601f10611d845750611da3565b601f016020900490600052602060002090810190611da29190611da6565b5b50565b5b80821115611dbf576000816000905550600101611da7565b5090565b6000604051905090565b600080fd5b600080fd5b6000819050919050565b611dea81611dd7565b8114611df557600080fd5b50565b600081359050611e0781611de1565b92915050565b600060208284031215611e2357611e22611dcd565b5b6000611e3184828501611df8565b91505092915050565b60008115159050919050565b611e4f81611e3a565b82525050565b600081519050919050565b600082825260208201905092915050565b60005b83811015611e8f578082015181840152602081019050611e74565b83811115611e9e576000848401525b50505050565b6000601f19601f8301169050919050565b6000611ec082611e55565b611eca8185611e60565b9350611eda818560208601611e71565b611ee381611ea4565b840191505092915050565b6000604082019050611f036000830185611e46565b8181036020830152611f158184611eb5565b90509392505050565b611f2781611dd7565b82525050565b6000602082019050611f426000830184611f1e565b92915050565b60006020820190508181036000830152611f628184611eb5565b905092915050565b600073ffffffffffffffffffffffffffffffffffffffff82169050919050565b6000611f9582611f6a565b9050919050565b611fa581611f8a565b82525050565b6000608082019050611fc06000830187611f9c565b8181036020830152611fd28186611eb5565b9050611fe16040830185611e46565b611fee6060830184611f1e565b95945050505050565b600080fd5b600080fd5b7f4e487b7100000000000000000000000000000000000000000000000000000000600052604160045260246000fd5b61203982611ea4565b810181811067ffffffffffffffff8211171561205857612057612001565b5b80604052505050565b600061206b611dc3565b90506120778282612030565b919050565b600067ffffffffffffffff82111561209757612096612001565b5b6120a082611ea4565b9050602081019050919050565b82818337600083830152505050565b60006120cf6120ca8461207c565b612061565b9050828152602081018484840111156120eb576120ea611ffc565b5b6120f68482856120ad565b509392505050565b600082601f83011261211357612112611ff7565b5b81356121238482602086016120bc565b91505092915050565b6000806040838503121561214357612142611dcd565b5b600061215185828601611df8565b925050602083013567ffffffffffffffff81111561217257612171611dd2565b5b61217e858286016120fe565b9150509250929050565b600060c08201905081810360008301526121a28189611eb5565b905081810360208301526121b68188611eb5565b905081810360408301526121ca8187611eb5565b90506121d96060830186611f1e565b6121e66080830185611e46565b6121f360a0830184611f9c565b979650505050505050565b60008060006060848603121561221757612216611dcd565b5b600084013567ffffffffffffffff81111561223557612234611dd2565b5b612241868287016120fe565b935050602084013567ffffffffffffffff81111561226257612261611dd2565b5b61226e868287016120fe565b925050604084013567ffffffffffffffff81111561228f5761228e611dd2565b5b61229b868287016120fe565b9150509250925092565b60006020820190506122ba6000830184611f9c565b92915050565b6122c981611f8a565b81146122d457600080fd5b50565b6000813590506122e6816122c0565b92915050565b6000806040838503121561230357612302611dcd565b5b600061231185828601611df8565b9250506020612322858286016122d7565b9150509250929050565b600060808201905081810360008301526123468187611eb5565b9050818103602083015261235a8186611eb5565b9050818103604083015261236e8185611eb5565b905061237d6060830184611f1e565b95945050505050565b7f4e487b7100000000000000000000000000000000000000000000000000000000600052602260045260246000fd5b600060028204905060018216806123cd57607f821691505b6020821081036123e0576123df612386565b5b50919050565b7f4365727469666963617465206973206e6f74207265766f6b6564000000000000600082015250565b600061241c601a83611e60565b9150612427826123e6565b602082019050919050565b6000602082019050818103600083015261244b8161240f565b9050919050565b7f4f6e6c79206365727469666963617465206f776e65722063616e20617070656160008201527f6c00000000000000000000000000000000000000000000000000000000000000602082015250565b60006124ae602183611e60565b91506124b982612452565b604082019050919050565b600060208201905081810360008301526124dd816124a1565b9050919050565b60006040820190506124f96000830185611f9c565b818103602083015261250b8184611eb5565b90509392505050565b7f4e487b7100000000000000000000000000000000000000000000000000000000600052603260045260246000fd5b7f4e487b7100000000000000000000000000000000000000000000000000000000600052601160045260246000fd5b600061257d82611dd7565b91507fffffffffffffffffffffffffffffffffffffffffffffffffffffffffffffffff82036125af576125ae612543565b5b600182019050919050565b7f4f6e6c7920617574686f72697a6564207369676e6572732063616e207065726660008201527f6f726d207468697320616374696f6e0000000000000000000000000000000000602082015250565b6000612616602f83611e60565b9150612621826125ba565b604082019050919050565b6000602082019050818103600083015261264581612609565b9050919050565b7f436572746966696361746520616c726561647920697373756564000000000000600082015250565b6000612682601a83611e60565b915061268d8261264c565b602082019050919050565b600060208201905081810360008301526126b181612675565b9050919050565b7f436572746966696361746520616c72656164792070726f706f73656400000000600082015250565b60006126ee601c83611e60565b91506126f9826126b8565b602082019050919050565b6000602082019050818103600083015261271d816126e1565b9050919050565b6000606082019050818103600083015261273e8186611eb5565b905081810360208301526127528185611eb5565b905081810360408301526127668184611eb5565b9050949350505050565b7f436572746966696361746520646f6573206e6f74206578697374000000000000600082015250565b60006127a6601a83611e60565b91506127b182612770565b602082019050919050565b600060208201905081810360008301526127d581612799565b9050919050565b7f41707065616c20616c7265616479207265736f6c766564000000000000000000600082015250565b6000612812601783611e60565b915061281d826127dc565b602082019050919050565b6000602082019050818103600083015261284181612805565b9050919050565b7f416c726561647920617070726f76656400000000000000000000000000000000600082015250565b600061287e601083611e60565b915061288982612848565b602082019050919050565b600060208201905081810360008301526128ad81612871565b9050919050565b7f4f6e6c7920746865206365727469666963617465206f776e65722063616e207460008201527f72616e7366657200000000000000000000000000000000000000000000000000602082015250565b6000612910602783611e60565b915061291b826128b4565b604082019050919050565b6000602082019050818103600083015261293f81612903565b9050919050565b7f496e76616c696420616464726573730000000000000000000000000000000000600082015250565b600061297c600f83611e60565b915061298782612946565b602082019050919050565b600060208201905081810360008301526129ab8161296f565b9050919050565b7f43657274696669636174652070726f706f73616c20646f6573206e6f7420657860008201527f6973740000000000000000000000000000000000000000000000000000000000602082015250565b6000612a0e602383611e60565b9150612a19826129b2565b604082019050919050565b60006020820190508181036000830152612a3d81612a01565b9050919050565b7f416c726561647920617070726f7665642062792074686973207369676e657200600082015250565b6000612a7a601f83611e60565b9150612a8582612a44565b602082019050919050565b60006020820190508181036000830152612aa981612a6d565b9050919050565b60008190508160005260206000209050919050565b60008154612ad2816123b5565b612adc8186611e60565b94506001821660008114612af75760018114612b0957612b3c565b60ff1983168652602086019350612b3c565b612b1285612ab0565b60005b83811015612b3457815481890152600182019150602081019050612b15565b808801955050505b50505092915050565b60006080820190508181036000830152612b5f8187612ac5565b90508181036020830152612b738186612ac5565b90508181036040830152612b878185612ac5565b9050612b966060830184611f1e565b9594505050505056fea2646970667358221220127ec54e9d45ecc56122f86370831ca522a5a6769d7e49db44d623be152029b864736f6c634300080d0033",
  "immutableReferences": {},
  "source": " // SPDX-License-Identifier: MIT\r\n\r\n// A decentralised system that stores academic credentials like certificates\r\n// Allows three kinds of users; institutions that issue certificates, certificate holders, verifiers\r\n// Institutions issue certificates and can revoke them in case of fraud\r\n// Employs Multisignature verification mechanism to either issue or revoke certificates\r\n// The contract also allows transfer of certifiate ownership,\r\n// enables students to move their certificates between accounts, which is useful if they lose access to their original wallet or migrate to a new digital identity\r\n// Also allows for one to appeal against unfair revocation of academic credentials\r\npragma solidity >0.4.0 <= 0.9.0;\r\n\r\ncontract CertificateVerification {\r\n    //State variables goes here\r\n    // Structure to represent a certificate\r\n    struct Certificate {\r\n        string studentName;\r\n        string courseName;\r\n        string institutionName;\r\n        uint issueDate;\r\n        bool isRevoked;\r\n        address owner;\r\n    }\r\n\r\n    // Structure to represent a pending certificate approval\r\n    struct PendingCertificate {\r\n        string studentName;\r\n        string courseName;\r\n        string institutionName;\r\n        uint approvals;\r\n    //this mapping  ensures that each signer can approve only once\r\n        mapping(address => bool) approvedBy;\r\n    }\r\n\r\n    struct RevocationAppeal {\r\n        address student;\r\n        string reason;\r\n        bool resolved;\r\n        uint approvals;\r\n        mapping(address => bool) approvedBy;\r\n    }\r\n\r\n    uint public certificateCount;\r\n\r\n    // Mapping of certificate IDs to Certificate structs\r\n    mapping(uint => Certificate) public certificates;\r\n\r\n    // Mapping of pending certificate IDs to PendingCertificate structs\r\n    mapping(uint => PendingCertificate) public pendingCertificates;\r\n\r\n    // Mapping of revocation reasons \r\n    mapping(uint => string) public revocationReasons;\r\n\r\n    // Mapping of revocation appeals\r\n    mapping(uint => RevocationAppeal) public revocationAppeals;\r\n\r\n    //Array to hold the addresses of  authorizedSigners\r\n    address[] public authorizedSigners;\r\n\r\n     //Minimum number of approvals required for a certificate to be issued\r\n    uint public quorum;\r\n\r\n    // Events\r\n    event CertificateIssued(\r\n        uint indexed certificateId,\r\n        string studentName,\r\n        string courseName,\r\n        string institutionName,\r\n        uint issueDate\r\n    );\r\n\r\n    event CertificateRevoked(uint indexed certificateId);\r\n\r\n    event CertificateProposed(\r\n        uint indexed certificateId,\r\n        string studentName,\r\n        string courseName,\r\n        string institutionName\r\n    );\r\n    event CertificateApproved(uint indexed certificateId, address approver);\r\n    event CertificateTransferred(uint indexed certificateId, address newOwner);\r\n    event RevocationAppealed(uint indexed certificateId, address student, string reason);\r\n    event RevocationAppealApproved(uint indexed certificateId, address approver);\r\n    event CertificateRestored(uint indexed certificateId);\r\n\r\n    // Modifier to restrict access to authorized signers\r\n    modifier onlyAuthorizedSigner() {\r\n        bool isSigner = false;\r\n        for (uint i = 0; i < authorizedSigners.length; i++) {\r\n            if (msg.sender == authorizedSigners[i]) {\r\n                isSigner = true;\r\n                break;\r\n            }\r\n        }\r\n        require(isSigner, \"Only authorized signers can perform this action\");\r\n        _;\r\n    }\r\n\r\n    // Constructor to set authorised signers and quorum\r\n    constructor(address[] memory _signers, uint _quorum) {\r\n        require(_signers.length >= _quorum, \"Quorum cannot exceed the number of signers\");\r\n        authorizedSigners = _signers;\r\n        quorum = _quorum;\r\n    }\r\n\r\n    // function getProductCount() public view returns(uint) {\r\n    //     return \r\n    // }\r\n\r\n    // Function to propose a certificate\r\n    function proposeCertificate(\r\n        string memory studentName,\r\n        string memory courseName,\r\n        string memory institutionName\r\n    ) public onlyAuthorizedSigner returns (uint) {\r\n\r\n        // Generate a unique certificate ID\r\n        uint certificateId = certificateCount;\r\n\r\n        // Ensure the certificate is not already issued or pending\r\n        require(certificates[certificateId].issueDate == 0, \"Certificate already issued\");\r\n        require(pendingCertificates[certificateId].approvals == 0, \"Certificate already proposed\");\r\n\r\n        // Represents a pending certificate\r\n        PendingCertificate storage pending = pendingCertificates[certificateId];\r\n        pending.studentName = studentName;\r\n        pending.courseName = courseName;\r\n        pending.institutionName = institutionName;\r\n\r\n        // Emit the CertificateProposed event\r\n        emit CertificateProposed(certificateId, studentName, courseName, institutionName);\r\n\r\n        certificateCount++;\r\n\r\n        return certificateId;\r\n    }\r\n\r\n    // Function to approve a certificate\r\n    function approveCertificate(uint certificateId) public onlyAuthorizedSigner {\r\n        PendingCertificate storage pending = pendingCertificates[certificateId];\r\n\r\n        // Ensure the certificate proposal exists\r\n        require(bytes(pending.studentName).length > 0, \"Certificate proposal does not exist\");\r\n\r\n        // Ensure the signer has not already approved\r\n        require(!pending.approvedBy[msg.sender], \"Already approved by this signer\");\r\n\r\n        // Record the approval\r\n        pending.approvedBy[msg.sender] = true;\r\n        pending.approvals++;\r\n\r\n        // Emit the CertificateApproved event\r\n        emit CertificateApproved(certificateId, msg.sender);\r\n\r\n        // If quorum is met, issue the certificate\r\n        if (pending.approvals >= quorum) {\r\n            _issueCertificate(certificateId, pending);\r\n        }\r\n    }\r\n\r\n    // Function to issue a certificate\r\n    function _issueCertificate(uint certificateId, PendingCertificate storage pending) internal {\r\n        certificates[certificateId] = Certificate({\r\n            studentName: pending.studentName,\r\n            courseName: pending.courseName,\r\n            institutionName: pending.institutionName,\r\n            issueDate: block.timestamp,\r\n            isRevoked: false,\r\n            owner: msg.sender\r\n        });\r\n\r\n        // Emit the CertificateIssued event\r\n        emit CertificateIssued(\r\n            certificateId,\r\n            pending.studentName,\r\n            pending.courseName,\r\n            pending.institutionName,\r\n            block.timestamp\r\n        );\r\n\r\n        // Clean up the pending certificate\r\n        delete pendingCertificates[certificateId];\r\n    }\r\n\r\n    // Function to revoke a certificate\r\n    function revokeCertificate(uint certificateId, string memory reason) public onlyAuthorizedSigner {\r\n    require(certificates[certificateId].issueDate != 0, \"Certificate does not exist\");\r\n    certificates[certificateId].isRevoked = true;\r\n    revocationReasons[certificateId] = reason;\r\n\r\n    emit CertificateRevoked(certificateId);\r\n}\r\n\r\n    // Function to allow a certificate owner to appeal incase of unfair revocation\r\n    function appealRevocation(uint certificateId, string memory reason) public {\r\n    require(certificates[certificateId].isRevoked, \"Certificate is not revoked\");\r\n    require(certificates[certificateId].owner == msg.sender, \"Only certificate owner can appeal\");\r\n\r\n    \r\n    RevocationAppeal storage appeal = revocationAppeals[certificateId];\r\n    appeal.student = msg.sender;\r\n    appeal.reason = reason;\r\n    appeal.resolved = false;\r\n    appeal.approvals = 0;\r\n\r\n    emit RevocationAppealed(certificateId, msg.sender, reason);\r\n}\r\n\r\n    // Function to approve a revocked certificate incase of any appeal\r\n    function approveRevocationAppeal(uint certificateId) public onlyAuthorizedSigner {\r\n        RevocationAppeal storage appeal = revocationAppeals[certificateId];\r\n        require(!appeal.resolved, \"Appeal already resolved\");\r\n        require(!appeal.approvedBy[msg.sender], \"Already approved\");\r\n\r\n        appeal.approvedBy[msg.sender] = true;\r\n        appeal.approvals++;\r\n        emit RevocationAppealApproved(certificateId, msg.sender);\r\n\r\n        if (appeal.approvals >= quorum) {\r\n            certificates[certificateId].isRevoked = false;\r\n            delete revocationAppeals[certificateId];\r\n            emit CertificateRestored(certificateId);\r\n        }\r\n    }\r\n\r\n     // Function to transfer ownership of a certificate\r\n    function transferCertificate(uint certificateId, address newOwner) public {\r\n        require(certificates[certificateId].owner == msg.sender, \"Only the certificate owner can transfer\");\r\n        require(newOwner != address(0), \"Invalid address\");\r\n        certificates[certificateId].owner = newOwner;\r\n        emit CertificateTransferred(certificateId, newOwner);\r\n    }\r\n\r\n\r\n    // Function to verify a certificate\r\n    function verifyCertificate(uint certificateId) public view returns (bool, string memory) {\r\n        Certificate memory cert = certificates[certificateId];\r\n        if (cert.issueDate == 0) {\r\n            return (false, \"Certificate does not exist\");\r\n        }\r\n        if (cert.isRevoked) {\r\n            return (false, \"Certificate has been revoked\");\r\n        }\r\n        return (true, \"Certificate is valid\");\r\n    }\r\n}\r\n",
  "sourcePath": "C:\\Users\\Felabs\\Documents\\TrustCertify\\contracts\\contracts\\CertificateVerification.sol",
  "compiler": {
    "name": "solc",
    "version": "0.8.13+commit.abaa5c0e.Emscripten.clang"
  },
  "schemaVersion": "3.4.16",
  "updatedAt": "2025-02-27T16:55:46.792Z",
  "networkType": "ethereum",
  "devdoc": {
    "kind": "dev",
    "methods": {},
    "version": 1
  },
  "userdoc": {
    "kind": "user",
    "methods": {},
    "version": 1
  }
}