{
  "contractName": "CertificateVerification",
  "abi": [
    {
      "inputs": [
        {
          "internalType": "address[]",
          "name": "_signers",
          "type": "address[]"
        },
        {
          "internalType": "uint256",
          "name": "_quorum",
          "type": "uint256"
        }
      ],
      "stateMutability": "nonpayable",
      "type": "constructor"
    },
    {
      "anonymous": false,
      "inputs": [
        {
          "indexed": true,
          "internalType": "bytes32",
          "name": "certificateId",
          "type": "bytes32"
        },
        {
          "indexed": false,
          "internalType": "address",
          "name": "approver",
          "type": "address"
        }
      ],
      "name": "CertificateApproved",
      "type": "event"
    },
    {
      "anonymous": false,
      "inputs": [
        {
          "indexed": true,
          "internalType": "bytes32",
          "name": "certificateId",
          "type": "bytes32"
        },
        {
          "indexed": false,
          "internalType": "string",
          "name": "studentName",
          "type": "string"
        },
        {
          "indexed": false,
          "internalType": "string",
          "name": "courseName",
          "type": "string"
        },
        {
          "indexed": false,
          "internalType": "string",
          "name": "institutionName",
          "type": "string"
        },
        {
          "indexed": false,
          "internalType": "uint256",
          "name": "issueDate",
          "type": "uint256"
        }
      ],
      "name": "CertificateIssued",
      "type": "event"
    },
    {
      "anonymous": false,
      "inputs": [
        {
          "indexed": true,
          "internalType": "bytes32",
          "name": "certificateId",
          "type": "bytes32"
        },
        {
          "indexed": false,
          "internalType": "string",
          "name": "studentName",
          "type": "string"
        },
        {
          "indexed": false,
          "internalType": "string",
          "name": "courseName",
          "type": "string"
        },
        {
          "indexed": false,
          "internalType": "string",
          "name": "institutionName",
          "type": "string"
        }
      ],
      "name": "CertificateProposed",
      "type": "event"
    },
    {
      "anonymous": false,
      "inputs": [
        {
          "indexed": true,
          "internalType": "bytes32",
          "name": "certificateId",
          "type": "bytes32"
        }
      ],
      "name": "CertificateRestored",
      "type": "event"
    },
    {
      "anonymous": false,
      "inputs": [
        {
          "indexed": true,
          "internalType": "bytes32",
          "name": "certificateId",
          "type": "bytes32"
        }
      ],
      "name": "CertificateRevoked",
      "type": "event"
    },
    {
      "anonymous": false,
      "inputs": [
        {
          "indexed": true,
          "internalType": "bytes32",
          "name": "certificateId",
          "type": "bytes32"
        },
        {
          "indexed": false,
          "internalType": "address",
          "name": "newOwner",
          "type": "address"
        }
      ],
      "name": "CertificateTransferred",
      "type": "event"
    },
    {
      "anonymous": false,
      "inputs": [
        {
          "indexed": true,
          "internalType": "bytes32",
          "name": "certificateId",
          "type": "bytes32"
        },
        {
          "indexed": false,
          "internalType": "address",
          "name": "approver",
          "type": "address"
        }
      ],
      "name": "RevocationAppealApproved",
      "type": "event"
    },
    {
      "anonymous": false,
      "inputs": [
        {
          "indexed": true,
          "internalType": "bytes32",
          "name": "certificateId",
          "type": "bytes32"
        },
        {
          "indexed": false,
          "internalType": "address",
          "name": "student",
          "type": "address"
        },
        {
          "indexed": false,
          "internalType": "string",
          "name": "reason",
          "type": "string"
        }
      ],
      "name": "RevocationAppealed",
      "type": "event"
    },
    {
      "inputs": [
        {
          "internalType": "uint256",
          "name": "",
          "type": "uint256"
        }
      ],
      "name": "authorizedSigners",
      "outputs": [
        {
          "internalType": "address",
          "name": "",
          "type": "address"
        }
      ],
      "stateMutability": "view",
      "type": "function",
      "constant": true
    },
    {
      "inputs": [],
      "name": "certificateCount",
      "outputs": [
        {
          "internalType": "uint256",
          "name": "",
          "type": "uint256"
        }
      ],
      "stateMutability": "view",
      "type": "function",
      "constant": true
    },
    {
      "inputs": [
        {
          "internalType": "bytes32",
          "name": "",
          "type": "bytes32"
        }
      ],
      "name": "certificates",
      "outputs": [
        {
          "internalType": "string",
          "name": "studentName",
          "type": "string"
        },
        {
          "internalType": "string",
          "name": "courseName",
          "type": "string"
        },
        {
          "internalType": "string",
          "name": "institutionName",
          "type": "string"
        },
        {
          "internalType": "uint256",
          "name": "issueDate",
          "type": "uint256"
        },
        {
          "internalType": "bool",
          "name": "isRevoked",
          "type": "bool"
        },
        {
          "internalType": "address",
          "name": "owner",
          "type": "address"
        }
      ],
      "stateMutability": "view",
      "type": "function",
      "constant": true
    },
    {
      "inputs": [
        {
          "internalType": "bytes32",
          "name": "",
          "type": "bytes32"
        }
      ],
      "name": "pendingCertificates",
      "outputs": [
        {
          "internalType": "string",
          "name": "studentName",
          "type": "string"
        },
        {
          "internalType": "string",
          "name": "courseName",
          "type": "string"
        },
        {
          "internalType": "string",
          "name": "institutionName",
          "type": "string"
        },
        {
          "internalType": "uint256",
          "name": "approvals",
          "type": "uint256"
        }
      ],
      "stateMutability": "view",
      "type": "function",
      "constant": true
    },
    {
      "inputs": [],
      "name": "quorum",
      "outputs": [
        {
          "internalType": "uint256",
          "name": "",
          "type": "uint256"
        }
      ],
      "stateMutability": "view",
      "type": "function",
      "constant": true
    },
    {
      "inputs": [
        {
          "internalType": "bytes32",
          "name": "",
          "type": "bytes32"
        }
      ],
      "name": "revocationAppeals",
      "outputs": [
        {
          "internalType": "address",
          "name": "student",
          "type": "address"
        },
        {
          "internalType": "string",
          "name": "reason",
          "type": "string"
        },
        {
          "internalType": "bool",
          "name": "resolved",
          "type": "bool"
        },
        {
          "internalType": "uint256",
          "name": "approvals",
          "type": "uint256"
        }
      ],
      "stateMutability": "view",
      "type": "function",
      "constant": true
    },
    {
      "inputs": [
        {
          "internalType": "bytes32",
          "name": "",
          "type": "bytes32"
        }
      ],
      "name": "revocationReasons",
      "outputs": [
        {
          "internalType": "string",
          "name": "",
          "type": "string"
        }
      ],
      "stateMutability": "view",
      "type": "function",
      "constant": true
    },
    {
      "inputs": [
        {
          "internalType": "string",
          "name": "studentName",
          "type": "string"
        },
        {
          "internalType": "string",
          "name": "courseName",
          "type": "string"
        },
        {
          "internalType": "string",
          "name": "institutionName",
          "type": "string"
        }
      ],
      "name": "proposeCertificate",
      "outputs": [
        {
          "internalType": "bytes32",
          "name": "",
          "type": "bytes32"
        }
      ],
      "stateMutability": "nonpayable",
      "type": "function"
    },
    {
      "inputs": [
        {
          "internalType": "bytes32",
          "name": "certificateId",
          "type": "bytes32"
        }
      ],
      "name": "approveCertificate",
      "outputs": [],
      "stateMutability": "nonpayable",
      "type": "function"
    },
    {
      "inputs": [
        {
          "internalType": "bytes32",
          "name": "certificateId",
          "type": "bytes32"
        },
        {
          "internalType": "string",
          "name": "reason",
          "type": "string"
        }
      ],
      "name": "revokeCertificate",
      "outputs": [],
      "stateMutability": "nonpayable",
      "type": "function"
    },
    {
      "inputs": [
        {
          "internalType": "bytes32",
          "name": "certificateId",
          "type": "bytes32"
        },
        {
          "internalType": "string",
          "name": "reason",
          "type": "string"
        }
      ],
      "name": "appealRevocation",
      "outputs": [],
      "stateMutability": "nonpayable",
      "type": "function"
    },
    {
      "inputs": [
        {
          "internalType": "bytes32",
          "name": "certificateId",
          "type": "bytes32"
        }
      ],
      "name": "approveRevocationAppeal",
      "outputs": [],
      "stateMutability": "nonpayable",
      "type": "function"
    },
    {
      "inputs": [
        {
          "internalType": "bytes32",
          "name": "certificateId",
          "type": "bytes32"
        },
        {
          "internalType": "address",
          "name": "newOwner",
          "type": "address"
        }
      ],
      "name": "transferCertificate",
      "outputs": [],
      "stateMutability": "nonpayable",
      "type": "function"
    },
    {
      "inputs": [
        {
          "internalType": "bytes32",
          "name": "certificateId",
          "type": "bytes32"
        }
      ],
      "name": "verifyCertificate",
      "outputs": [
        {
          "internalType": "bool",
          "name": "",
          "type": "bool"
        },
        {
          "internalType": "string",
          "name": "",
          "type": "string"
        }
      ],
      "stateMutability": "view",
      "type": "function",
      "constant": true
    }
  ],
  "bytecode": "0x60806040523480156200001157600080fd5b50604051620031b1380380620031b183398181016040528101906200003791906200037d565b80825110156200007e576040517f08c379a000000000000000000000000000000000000000000000000000000000815260040162000075906200046a565b60405180910390fd5b816005908051906020019062000096929190620000a6565b508060068190555050506200048c565b82805482825590600052602060002090810192821562000122579160200282015b82811115620001215782518260006101000a81548173ffffffffffffffffffffffffffffffffffffffff021916908373ffffffffffffffffffffffffffffffffffffffff16021790555091602001919060010190620000c7565b5b50905062000131919062000135565b5090565b5b808211156200015057600081600090555060010162000136565b5090565b6000604051905090565b600080fd5b600080fd5b600080fd5b6000601f19601f8301169050919050565b7f4e487b7100000000000000000000000000000000000000000000000000000000600052604160045260246000fd5b620001b8826200016d565b810181811067ffffffffffffffff82111715620001da57620001d96200017e565b5b80604052505050565b6000620001ef62000154565b9050620001fd8282620001ad565b919050565b600067ffffffffffffffff82111562000220576200021f6200017e565b5b602082029050602081019050919050565b600080fd5b600073ffffffffffffffffffffffffffffffffffffffff82169050919050565b6000620002638262000236565b9050919050565b620002758162000256565b81146200028157600080fd5b50565b60008151905062000295816200026a565b92915050565b6000620002b2620002ac8462000202565b620001e3565b90508083825260208201905060208402830185811115620002d857620002d762000231565b5b835b81811015620003055780620002f0888262000284565b845260208401935050602081019050620002da565b5050509392505050565b600082601f83011262000327576200032662000168565b5b8151620003398482602086016200029b565b91505092915050565b6000819050919050565b620003578162000342565b81146200036357600080fd5b50565b60008151905062000377816200034c565b92915050565b600080604083850312156200039757620003966200015e565b5b600083015167ffffffffffffffff811115620003b857620003b762000163565b5b620003c6858286016200030f565b9250506020620003d98582860162000366565b9150509250929050565b600082825260208201905092915050565b7f51756f72756d2063616e6e6f742065786365656420746865206e756d6265722060008201527f6f66207369676e65727300000000000000000000000000000000000000000000602082015250565b600062000452602a83620003e3565b91506200045f82620003f4565b604082019050919050565b60006020820190508181036000830152620004858162000443565b9050919050565b612d15806200049c6000396000f3fe608060405234801561001057600080fd5b50600436106100ea5760003560e01c80637e3f180d1161008c5780639f0be718116100665780639f0be718146102615780639f5c73e714610294578063a2b84460146102c7578063f8d7c9b1146102f7576100ea565b80637e3f180d146101e4578063850c176814610214578063886be40014610245576100ea565b806352d7b89c116100c857806352d7b89c146101455780635bf4adfb14610163578063742f06881461017f5780637a5a6edf146101b4576100ea565b80631703a018146100ef57806324d6a9ef1461010d578063253ad5ae14610129575b600080fd5b6100f7610313565b6040516101049190611df0565b60405180910390f35b61012760048036038101906101229190611e55565b610319565b005b610143600480360381019061013e9190611ee0565b6105ba565b005b61014d61075e565b60405161015a9190611df0565b60405180910390f35b61017d60048036038101906101789190612066565b610764565b005b61019960048036038101906101949190611e55565b610924565b6040516101ab96959493929190612174565b60405180910390f35b6101ce60048036038101906101c99190611e55565b610b25565b6040516101db91906121ea565b60405180910390f35b6101fe60048036038101906101f9919061220c565b610bc5565b60405161020b91906122c2565b60405180910390f35b61022e60048036038101906102299190611e55565b610e38565b60405161023c9291906122dd565b60405180910390f35b61025f600480360381019061025a9190612066565b61116c565b005b61027b60048036038101906102769190611e55565b61134c565b60405161028b949392919061230d565b60405180910390f35b6102ae60048036038101906102a99190611e55565b611431565b6040516102be9493929190612359565b60405180910390f35b6102e160048036038101906102dc91906123df565b6115f9565b6040516102ee919061240c565b60405180910390f35b610311600480360381019061030c9190611e55565b611638565b005b60065481565b6000805b6005805490508110156103b7576005818154811061033e5761033d612427565b5b9060005260206000200160009054906101000a900473ffffffffffffffffffffffffffffffffffffffff1673ffffffffffffffffffffffffffffffffffffffff163373ffffffffffffffffffffffffffffffffffffffff16036103a457600191506103b7565b80806103af90612485565b91505061031d565b50806103f8576040517f08c379a00000000000000000000000000000000000000000000000000000000081526004016103ef9061253f565b60405180910390fd5b600060026000848152602001908152602001600020905060008160000180546104209061258e565b905011610462576040517f08c379a000000000000000000000000000000000000000000000000000000000815260040161045990612631565b60405180910390fd5b8060040160003373ffffffffffffffffffffffffffffffffffffffff1673ffffffffffffffffffffffffffffffffffffffff16815260200190815260200160002060009054906101000a900460ff16156104f1576040517f08c379a00000000000000000000000000000000000000000000000000000000081526004016104e89061269d565b60405180910390fd5b60018160040160003373ffffffffffffffffffffffffffffffffffffffff1673ffffffffffffffffffffffffffffffffffffffff16815260200190815260200160002060006101000a81548160ff02191690831515021790555080600301600081548092919061056090612485565b9190505550827f7e2e6c0da02e9c8bf69b33222a02e955833a6454035a7e8aac3a3be6db616f3733604051610595919061240c565b60405180910390a26006548160030154106105b5576105b48382611993565b5b505050565b3373ffffffffffffffffffffffffffffffffffffffff166001600084815260200190815260200160002060040160019054906101000a900473ffffffffffffffffffffffffffffffffffffffff1673ffffffffffffffffffffffffffffffffffffffff161461065e576040517f08c379a00000000000000000000000000000000000000000000000000000000081526004016106559061272f565b60405180910390fd5b600073ffffffffffffffffffffffffffffffffffffffff168173ffffffffffffffffffffffffffffffffffffffff16036106cd576040517f08c379a00000000000000000000000000000000000000000000000000000000081526004016106c49061279b565b60405180910390fd5b806001600084815260200190815260200160002060040160016101000a81548173ffffffffffffffffffffffffffffffffffffffff021916908373ffffffffffffffffffffffffffffffffffffffff160217905550817ff1454b8d69f3bc0db3a2262a5373643894aed9cfe1f5a12af8bd498f20e5c74a82604051610752919061240c565b60405180910390a25050565b60005481565b6000805b600580549050811015610802576005818154811061078957610788612427565b5b9060005260206000200160009054906101000a900473ffffffffffffffffffffffffffffffffffffffff1673ffffffffffffffffffffffffffffffffffffffff163373ffffffffffffffffffffffffffffffffffffffff16036107ef5760019150610802565b80806107fa90612485565b915050610768565b5080610843576040517f08c379a000000000000000000000000000000000000000000000000000000000815260040161083a9061253f565b60405180910390fd5b600060016000858152602001908152602001600020600301540361089c576040517f08c379a000000000000000000000000000000000000000000000000000000000815260040161089390612807565b60405180910390fd5b600180600085815260200190815260200160002060040160006101000a81548160ff021916908315150217905550816003600085815260200190815260200160002090805190602001906108f1929190611cf4565b50827f44d80a438cb4fa3b5aedbe551ce3d9382e37f446917b783e1dee70a03b4180e360405160405180910390a2505050565b60016020528060005260406000206000915090508060000180546109479061258e565b80601f01602080910402602001604051908101604052809291908181526020018280546109739061258e565b80156109c05780601f10610995576101008083540402835291602001916109c0565b820191906000526020600020905b8154815290600101906020018083116109a357829003601f168201915b5050505050908060010180546109d59061258e565b80601f0160208091040260200160405190810160405280929190818152602001828054610a019061258e565b8015610a4e5780601f10610a2357610100808354040283529160200191610a4e565b820191906000526020600020905b815481529060010190602001808311610a3157829003601f168201915b505050505090806002018054610a639061258e565b80601f0160208091040260200160405190810160405280929190818152602001828054610a8f9061258e565b8015610adc5780601f10610ab157610100808354040283529160200191610adc565b820191906000526020600020905b815481529060010190602001808311610abf57829003601f168201915b5050505050908060030154908060040160009054906101000a900460ff16908060040160019054906101000a900473ffffffffffffffffffffffffffffffffffffffff16905086565b60036020528060005260406000206000915090508054610b449061258e565b80601f0160208091040260200160405190810160405280929190818152602001828054610b709061258e565b8015610bbd5780601f10610b9257610100808354040283529160200191610bbd565b820191906000526020600020905b815481529060010190602001808311610ba057829003601f168201915b505050505081565b6000806000905060005b600580549050811015610c695760058181548110610bf057610bef612427565b5b9060005260206000200160009054906101000a900473ffffffffffffffffffffffffffffffffffffffff1673ffffffffffffffffffffffffffffffffffffffff163373ffffffffffffffffffffffffffffffffffffffff1603610c565760019150610c69565b8080610c6190612485565b915050610bcf565b5080610caa576040517f08c379a0000000000000000000000000000000000000000000000000000000008152600401610ca19061253f565b60405180910390fd5b600085858542604051602001610cc39493929190612884565b6040516020818303038152906040528051906020012090506000600160008381526020019081526020016000206003015414610d34576040517f08c379a0000000000000000000000000000000000000000000000000000000008152600401610d2b90612912565b60405180910390fd5b6000600260008381526020019081526020016000206003015414610d8d576040517f08c379a0000000000000000000000000000000000000000000000000000000008152600401610d849061297e565b60405180910390fd5b600060026000838152602001908152602001600020905086816000019080519060200190610dbc929190611cf4565b5085816001019080519060200190610dd5929190611cf4565b5084816002019080519060200190610dee929190611cf4565b50817fd3f69c8bddf031b36de7c193830d1e65af283e5a7c50e698fd77474d11d4bf95888888604051610e239392919061299e565b60405180910390a28193505050509392505050565b600060606000600160008581526020019081526020016000206040518060c0016040529081600082018054610e6c9061258e565b80601f0160208091040260200160405190810160405280929190818152602001828054610e989061258e565b8015610ee55780601f10610eba57610100808354040283529160200191610ee5565b820191906000526020600020905b815481529060010190602001808311610ec857829003601f168201915b50505050508152602001600182018054610efe9061258e565b80601f0160208091040260200160405190810160405280929190818152602001828054610f2a9061258e565b8015610f775780601f10610f4c57610100808354040283529160200191610f77565b820191906000526020600020905b815481529060010190602001808311610f5a57829003601f168201915b50505050508152602001600282018054610f909061258e565b80601f0160208091040260200160405190810160405280929190818152602001828054610fbc9061258e565b80156110095780601f10610fde57610100808354040283529160200191611009565b820191906000526020600020905b815481529060010190602001808311610fec57829003601f168201915b50505050508152602001600382015481526020016004820160009054906101000a900460ff161515151581526020016004820160019054906101000a900473ffffffffffffffffffffffffffffffffffffffff1673ffffffffffffffffffffffffffffffffffffffff1673ffffffffffffffffffffffffffffffffffffffff1681525050905060008160600151036110dd5760006040518060400160405280601a81526020017f436572746966696361746520646f6573206e6f742065786973740000000000008152509250925050611167565b8060800151156111295760006040518060400160405280601c81526020017f436572746966696361746520686173206265656e207265766f6b6564000000008152509250925050611167565b60016040518060400160405280601481526020017f43657274696669636174652069732076616c696400000000000000000000000081525092509250505b915091565b6001600083815260200190815260200160002060040160009054906101000a900460ff166111cf576040517f08c379a00000000000000000000000000000000000000000000000000000000081526004016111c690612a36565b60405180910390fd5b3373ffffffffffffffffffffffffffffffffffffffff166001600084815260200190815260200160002060040160019054906101000a900473ffffffffffffffffffffffffffffffffffffffff1673ffffffffffffffffffffffffffffffffffffffff1614611273576040517f08c379a000000000000000000000000000000000000000000000000000000000815260040161126a90612ac8565b60405180910390fd5b6000600460008481526020019081526020016000209050338160000160006101000a81548173ffffffffffffffffffffffffffffffffffffffff021916908373ffffffffffffffffffffffffffffffffffffffff160217905550818160010190805190602001906112e5929190611cf4565b5060008160020160006101000a81548160ff02191690831515021790555060008160030181905550827f93b0fb6594344d88dee09e4337fc8c4bc7ff5be0e34a03b9d32736458a65481a338460405161133f929190612ae8565b60405180910390a2505050565b60046020528060005260406000206000915090508060000160009054906101000a900473ffffffffffffffffffffffffffffffffffffffff16908060010180546113959061258e565b80601f01602080910402602001604051908101604052809291908181526020018280546113c19061258e565b801561140e5780601f106113e35761010080835404028352916020019161140e565b820191906000526020600020905b8154815290600101906020018083116113f157829003601f168201915b5050505050908060020160009054906101000a900460ff16908060030154905084565b60026020528060005260406000206000915090508060000180546114549061258e565b80601f01602080910402602001604051908101604052809291908181526020018280546114809061258e565b80156114cd5780601f106114a2576101008083540402835291602001916114cd565b820191906000526020600020905b8154815290600101906020018083116114b057829003601f168201915b5050505050908060010180546114e29061258e565b80601f016020809104026020016040519081016040528092919081815260200182805461150e9061258e565b801561155b5780601f106115305761010080835404028352916020019161155b565b820191906000526020600020905b81548152906001019060200180831161153e57829003601f168201915b5050505050908060020180546115709061258e565b80601f016020809104026020016040519081016040528092919081815260200182805461159c9061258e565b80156115e95780601f106115be576101008083540402835291602001916115e9565b820191906000526020600020905b8154815290600101906020018083116115cc57829003601f168201915b5050505050908060030154905084565b6005818154811061160957600080fd5b906000526020600020016000915054906101000a900473ffffffffffffffffffffffffffffffffffffffff1681565b6000805b6005805490508110156116d6576005818154811061165d5761165c612427565b5b9060005260206000200160009054906101000a900473ffffffffffffffffffffffffffffffffffffffff1673ffffffffffffffffffffffffffffffffffffffff163373ffffffffffffffffffffffffffffffffffffffff16036116c357600191506116d6565b80806116ce90612485565b91505061163c565b5080611717576040517f08c379a000000000000000000000000000000000000000000000000000000000815260040161170e9061253f565b60405180910390fd5b60006004600084815260200190815260200160002090508060020160009054906101000a900460ff1615611780576040517f08c379a000000000000000000000000000000000000000000000000000000000815260040161177790612b64565b60405180910390fd5b8060040160003373ffffffffffffffffffffffffffffffffffffffff1673ffffffffffffffffffffffffffffffffffffffff16815260200190815260200160002060009054906101000a900460ff161561180f576040517f08c379a000000000000000000000000000000000000000000000000000000000815260040161180690612bd0565b60405180910390fd5b60018160040160003373ffffffffffffffffffffffffffffffffffffffff1673ffffffffffffffffffffffffffffffffffffffff16815260200190815260200160002060006101000a81548160ff02191690831515021790555080600301600081548092919061187e90612485565b9190505550827f5106e2b4cdf1a6517c70c2f6257af0232c5e7c38d71b3a3f2f6bd1845b9eb23f336040516118b3919061240c565b60405180910390a260065481600301541061198e5760006001600085815260200190815260200160002060040160006101000a81548160ff02191690831515021790555060046000848152602001908152602001600020600080820160006101000a81549073ffffffffffffffffffffffffffffffffffffffff02191690556001820160006119429190611d7a565b6002820160006101000a81549060ff021916905560038201600090555050827f3d98b42c2edd94502eef2f702012fbcd6b308067932a5ff164aae15b0cf1ab2160405160405180910390a25b505050565b6040518060c001604052808260000180546119ad9061258e565b80601f01602080910402602001604051908101604052809291908181526020018280546119d99061258e565b8015611a265780601f106119fb57610100808354040283529160200191611a26565b820191906000526020600020905b815481529060010190602001808311611a0957829003601f168201915b50505050508152602001826001018054611a3f9061258e565b80601f0160208091040260200160405190810160405280929190818152602001828054611a6b9061258e565b8015611ab85780601f10611a8d57610100808354040283529160200191611ab8565b820191906000526020600020905b815481529060010190602001808311611a9b57829003601f168201915b50505050508152602001826002018054611ad19061258e565b80601f0160208091040260200160405190810160405280929190818152602001828054611afd9061258e565b8015611b4a5780601f10611b1f57610100808354040283529160200191611b4a565b820191906000526020600020905b815481529060010190602001808311611b2d57829003601f168201915b505050505081526020014281526020016000151581526020013373ffffffffffffffffffffffffffffffffffffffff16815250600160008481526020019081526020016000206000820151816000019080519060200190611bac929190611cf4565b506020820151816001019080519060200190611bc9929190611cf4565b506040820151816002019080519060200190611be6929190611cf4565b506060820151816003015560808201518160040160006101000a81548160ff02191690831515021790555060a08201518160040160016101000a81548173ffffffffffffffffffffffffffffffffffffffff021916908373ffffffffffffffffffffffffffffffffffffffff160217905550905050817f609da1dc5a288b98d4d6e35acd31d48b7967dea867215e051fb04d53fcd686eb82600001836001018460020142604051611c9a9493929190612c85565b60405180910390a26002600083815260200190815260200160002060008082016000611cc69190611d7a565b600182016000611cd69190611d7a565b600282016000611ce69190611d7a565b600382016000905550505050565b828054611d009061258e565b90600052602060002090601f016020900481019282611d225760008555611d69565b82601f10611d3b57805160ff1916838001178555611d69565b82800160010185558215611d69579182015b82811115611d68578251825591602001919060010190611d4d565b5b509050611d769190611dba565b5090565b508054611d869061258e565b6000825580601f10611d985750611db7565b601f016020900490600052602060002090810190611db69190611dba565b5b50565b5b80821115611dd3576000816000905550600101611dbb565b5090565b6000819050919050565b611dea81611dd7565b82525050565b6000602082019050611e056000830184611de1565b92915050565b6000604051905090565b600080fd5b600080fd5b6000819050919050565b611e3281611e1f565b8114611e3d57600080fd5b50565b600081359050611e4f81611e29565b92915050565b600060208284031215611e6b57611e6a611e15565b5b6000611e7984828501611e40565b91505092915050565b600073ffffffffffffffffffffffffffffffffffffffff82169050919050565b6000611ead82611e82565b9050919050565b611ebd81611ea2565b8114611ec857600080fd5b50565b600081359050611eda81611eb4565b92915050565b60008060408385031215611ef757611ef6611e15565b5b6000611f0585828601611e40565b9250506020611f1685828601611ecb565b9150509250929050565b600080fd5b600080fd5b6000601f19601f8301169050919050565b7f4e487b7100000000000000000000000000000000000000000000000000000000600052604160045260246000fd5b611f7382611f2a565b810181811067ffffffffffffffff82111715611f9257611f91611f3b565b5b80604052505050565b6000611fa5611e0b565b9050611fb18282611f6a565b919050565b600067ffffffffffffffff821115611fd157611fd0611f3b565b5b611fda82611f2a565b9050602081019050919050565b82818337600083830152505050565b600061200961200484611fb6565b611f9b565b90508281526020810184848401111561202557612024611f25565b5b612030848285611fe7565b509392505050565b600082601f83011261204d5761204c611f20565b5b813561205d848260208601611ff6565b91505092915050565b6000806040838503121561207d5761207c611e15565b5b600061208b85828601611e40565b925050602083013567ffffffffffffffff8111156120ac576120ab611e1a565b5b6120b885828601612038565b9150509250929050565b600081519050919050565b600082825260208201905092915050565b60005b838110156120fc5780820151818401526020810190506120e1565b8381111561210b576000848401525b50505050565b600061211c826120c2565b61212681856120cd565b93506121368185602086016120de565b61213f81611f2a565b840191505092915050565b60008115159050919050565b61215f8161214a565b82525050565b61216e81611ea2565b82525050565b600060c082019050818103600083015261218e8189612111565b905081810360208301526121a28188612111565b905081810360408301526121b68187612111565b90506121c56060830186611de1565b6121d26080830185612156565b6121df60a0830184612165565b979650505050505050565b600060208201905081810360008301526122048184612111565b905092915050565b60008060006060848603121561222557612224611e15565b5b600084013567ffffffffffffffff81111561224357612242611e1a565b5b61224f86828701612038565b935050602084013567ffffffffffffffff8111156122705761226f611e1a565b5b61227c86828701612038565b925050604084013567ffffffffffffffff81111561229d5761229c611e1a565b5b6122a986828701612038565b9150509250925092565b6122bc81611e1f565b82525050565b60006020820190506122d760008301846122b3565b92915050565b60006040820190506122f26000830185612156565b81810360208301526123048184612111565b90509392505050565b60006080820190506123226000830187612165565b81810360208301526123348186612111565b90506123436040830185612156565b6123506060830184611de1565b95945050505050565b600060808201905081810360008301526123738187612111565b905081810360208301526123878186612111565b9050818103604083015261239b8185612111565b90506123aa6060830184611de1565b95945050505050565b6123bc81611dd7565b81146123c757600080fd5b50565b6000813590506123d9816123b3565b92915050565b6000602082840312156123f5576123f4611e15565b5b6000612403848285016123ca565b91505092915050565b60006020820190506124216000830184612165565b92915050565b7f4e487b7100000000000000000000000000000000000000000000000000000000600052603260045260246000fd5b7f4e487b7100000000000000000000000000000000000000000000000000000000600052601160045260246000fd5b600061249082611dd7565b91507fffffffffffffffffffffffffffffffffffffffffffffffffffffffffffffffff82036124c2576124c1612456565b5b600182019050919050565b7f4f6e6c7920617574686f72697a6564207369676e6572732063616e207065726660008201527f6f726d207468697320616374696f6e0000000000000000000000000000000000602082015250565b6000612529602f836120cd565b9150612534826124cd565b604082019050919050565b600060208201905081810360008301526125588161251c565b9050919050565b7f4e487b7100000000000000000000000000000000000000000000000000000000600052602260045260246000fd5b600060028204905060018216806125a657607f821691505b6020821081036125b9576125b861255f565b5b50919050565b7f43657274696669636174652070726f706f73616c20646f6573206e6f7420657860008201527f6973740000000000000000000000000000000000000000000000000000000000602082015250565b600061261b6023836120cd565b9150612626826125bf565b604082019050919050565b6000602082019050818103600083015261264a8161260e565b9050919050565b7f416c726561647920617070726f7665642062792074686973207369676e657200600082015250565b6000612687601f836120cd565b915061269282612651565b602082019050919050565b600060208201905081810360008301526126b68161267a565b9050919050565b7f4f6e6c7920746865206365727469666963617465206f776e65722063616e207460008201527f72616e7366657200000000000000000000000000000000000000000000000000602082015250565b60006127196027836120cd565b9150612724826126bd565b604082019050919050565b600060208201905081810360008301526127488161270c565b9050919050565b7f496e76616c696420616464726573730000000000000000000000000000000000600082015250565b6000612785600f836120cd565b91506127908261274f565b602082019050919050565b600060208201905081810360008301526127b481612778565b9050919050565b7f436572746966696361746520646f6573206e6f74206578697374000000000000600082015250565b60006127f1601a836120cd565b91506127fc826127bb565b602082019050919050565b60006020820190508181036000830152612820816127e4565b9050919050565b600081905092915050565b600061283d826120c2565b6128478185612827565b93506128578185602086016120de565b80840191505092915050565b6000819050919050565b61287e61287982611dd7565b612863565b82525050565b60006128908287612832565b915061289c8286612832565b91506128a88285612832565b91506128b4828461286d565b60208201915081905095945050505050565b7f436572746966696361746520616c726561647920697373756564000000000000600082015250565b60006128fc601a836120cd565b9150612907826128c6565b602082019050919050565b6000602082019050818103600083015261292b816128ef565b9050919050565b7f436572746966696361746520616c72656164792070726f706f73656400000000600082015250565b6000612968601c836120cd565b915061297382612932565b602082019050919050565b600060208201905081810360008301526129978161295b565b9050919050565b600060608201905081810360008301526129b88186612111565b905081810360208301526129cc8185612111565b905081810360408301526129e08184612111565b9050949350505050565b7f4365727469666963617465206973206e6f74207265766f6b6564000000000000600082015250565b6000612a20601a836120cd565b9150612a2b826129ea565b602082019050919050565b60006020820190508181036000830152612a4f81612a13565b9050919050565b7f4f6e6c79206365727469666963617465206f776e65722063616e20617070656160008201527f6c00000000000000000000000000000000000000000000000000000000000000602082015250565b6000612ab26021836120cd565b9150612abd82612a56565b604082019050919050565b60006020820190508181036000830152612ae181612aa5565b9050919050565b6000604082019050612afd6000830185612165565b8181036020830152612b0f8184612111565b90509392505050565b7f41707065616c20616c7265616479207265736f6c766564000000000000000000600082015250565b6000612b4e6017836120cd565b9150612b5982612b18565b602082019050919050565b60006020820190508181036000830152612b7d81612b41565b9050919050565b7f416c726561647920617070726f76656400000000000000000000000000000000600082015250565b6000612bba6010836120cd565b9150612bc582612b84565b602082019050919050565b60006020820190508181036000830152612be981612bad565b9050919050565b60008190508160005260206000209050919050565b60008154612c128161258e565b612c1c81866120cd565b94506001821660008114612c375760018114612c4957612c7c565b60ff1983168652602086019350612c7c565b612c5285612bf0565b60005b83811015612c7457815481890152600182019150602081019050612c55565b808801955050505b50505092915050565b60006080820190508181036000830152612c9f8187612c05565b90508181036020830152612cb38186612c05565b90508181036040830152612cc78185612c05565b9050612cd66060830184611de1565b9594505050505056fea264697066735822122074337e07acbda30ab95ec8721df281d13d7460ceac7cb550e05e2d8d9b3e78d864736f6c634300080d0033",
  "immutableReferences": {},
  "source": " // SPDX-License-Identifier: MIT\r\n\r\n// A decentralised system that stores academic credentials like certificates\r\n// Allows three kinds of users; institutions that issue certificates, certificate holders, verifiers\r\n// Institutions issue certificates and can revoke them in case of fraud\r\n// Employs Multisignature verification mechanism to either issue or revoke certificates\r\n// The contract also allows transfer of certifiate ownership,\r\n// enables students to move their certificates between accounts, which is useful if they lose access to their original wallet or migrate to a new digital identity\r\n// Also allows for one to appeal against unfair revocation of academic credentials\r\npragma solidity >0.4.0 <= 0.9.0;\r\n\r\ncontract CertificateVerification {\r\n    //State variables goes here\r\n    // Structure to represent a certificate\r\n    struct Certificate {\r\n        string studentName;\r\n        string courseName;\r\n        string institutionName;\r\n        uint issueDate;\r\n        bool isRevoked;\r\n        address owner;\r\n    }\r\n\r\n    // Structure to represent a pending certificate approval\r\n    struct PendingCertificate {\r\n        string studentName;\r\n        string courseName;\r\n        string institutionName;\r\n        uint approvals;\r\n    //this mapping  ensures that each signer can approve only once\r\n        mapping(address => bool) approvedBy;\r\n    }\r\n\r\n    struct RevocationAppeal {\r\n        address student;\r\n        string reason;\r\n        bool resolved;\r\n        uint approvals;\r\n        mapping(address => bool) approvedBy;\r\n    }\r\n\r\n    uint public certificateCount;\r\n\r\n    // Mapping of certificate IDs to Certificate structs\r\n    mapping(bytes32 => Certificate) public certificates;\r\n\r\n    // Mapping of pending certificate IDs to PendingCertificate structs\r\n    mapping(bytes32 => PendingCertificate) public pendingCertificates;\r\n\r\n    // Mapping of revocation reasons \r\n    mapping(bytes32 => string) public revocationReasons;\r\n\r\n    // Mapping of revocation appeals\r\n    mapping(bytes32 => RevocationAppeal) public revocationAppeals;\r\n\r\n    //Array to hold the addresses of  authorizedSigners\r\n    address[] public authorizedSigners;\r\n\r\n     //Minimum number of approvals required for a certificate to be issued\r\n    uint public quorum;\r\n\r\n    // Events\r\n    event CertificateIssued(\r\n        bytes32 indexed certificateId,\r\n        string studentName,\r\n        string courseName,\r\n        string institutionName,\r\n        uint issueDate\r\n    );\r\n\r\n    event CertificateRevoked(bytes32 indexed certificateId);\r\n\r\n    event CertificateProposed(\r\n        bytes32 indexed certificateId,\r\n        string studentName,\r\n        string courseName,\r\n        string institutionName\r\n    );\r\n    event CertificateApproved(bytes32 indexed certificateId, address approver);\r\n    event CertificateTransferred(bytes32 indexed certificateId, address newOwner);\r\n    event RevocationAppealed(bytes32 indexed certificateId, address student, string reason);\r\n    event RevocationAppealApproved(bytes32 indexed certificateId, address approver);\r\n    event CertificateRestored(bytes32 indexed certificateId);\r\n\r\n    // Modifier to restrict access to authorized signers\r\n    modifier onlyAuthorizedSigner() {\r\n        bool isSigner = false;\r\n        for (uint i = 0; i < authorizedSigners.length; i++) {\r\n            if (msg.sender == authorizedSigners[i]) {\r\n                isSigner = true;\r\n                break;\r\n            }\r\n        }\r\n        require(isSigner, \"Only authorized signers can perform this action\");\r\n        _;\r\n    }\r\n\r\n    // Constructor to set authorised signers and quorum\r\n    constructor(address[] memory _signers, uint _quorum) {\r\n        require(_signers.length >= _quorum, \"Quorum cannot exceed the number of signers\");\r\n        authorizedSigners = _signers;\r\n        quorum = _quorum;\r\n    }\r\n\r\n    // Function to propose a certificate\r\n    function proposeCertificate(\r\n        string memory studentName,\r\n        string memory courseName,\r\n        string memory institutionName\r\n    ) public onlyAuthorizedSigner returns (bytes32) {\r\n\r\n        // Generate a unique certificate ID\r\n        bytes32 certificateId = keccak256(\r\n            abi.encodePacked(studentName, courseName, institutionName, block.timestamp)\r\n        );\r\n\r\n        // Ensure the certificate is not already issued or pending\r\n        require(certificates[certificateId].issueDate == 0, \"Certificate already issued\");\r\n        require(pendingCertificates[certificateId].approvals == 0, \"Certificate already proposed\");\r\n\r\n        // Represents a pending certificate\r\n        PendingCertificate storage pending = pendingCertificates[certificateId];\r\n        pending.studentName = studentName;\r\n        pending.courseName = courseName;\r\n        pending.institutionName = institutionName;\r\n\r\n        // Emit the CertificateProposed event\r\n        emit CertificateProposed(certificateId, studentName, courseName, institutionName);\r\n\r\n        return certificateId;\r\n    }\r\n\r\n    // Function to approve a certificate\r\n    function approveCertificate(bytes32 certificateId) public onlyAuthorizedSigner {\r\n        PendingCertificate storage pending = pendingCertificates[certificateId];\r\n\r\n        // Ensure the certificate proposal exists\r\n        require(bytes(pending.studentName).length > 0, \"Certificate proposal does not exist\");\r\n\r\n        // Ensure the signer has not already approved\r\n        require(!pending.approvedBy[msg.sender], \"Already approved by this signer\");\r\n\r\n        // Record the approval\r\n        pending.approvedBy[msg.sender] = true;\r\n        pending.approvals++;\r\n\r\n        // Emit the CertificateApproved event\r\n        emit CertificateApproved(certificateId, msg.sender);\r\n\r\n        // If quorum is met, issue the certificate\r\n        if (pending.approvals >= quorum) {\r\n            _issueCertificate(certificateId, pending);\r\n        }\r\n    }\r\n\r\n    // Function to issue a certificate\r\n    function _issueCertificate(bytes32 certificateId, PendingCertificate storage pending) internal {\r\n        certificates[certificateId] = Certificate({\r\n            studentName: pending.studentName,\r\n            courseName: pending.courseName,\r\n            institutionName: pending.institutionName,\r\n            issueDate: block.timestamp,\r\n            isRevoked: false,\r\n            owner: msg.sender\r\n        });\r\n\r\n        // Emit the CertificateIssued event\r\n        emit CertificateIssued(\r\n            certificateId,\r\n            pending.studentName,\r\n            pending.courseName,\r\n            pending.institutionName,\r\n            block.timestamp\r\n        );\r\n\r\n        // Clean up the pending certificate\r\n        delete pendingCertificates[certificateId];\r\n    }\r\n\r\n    // Function to revoke a certificate\r\n    function revokeCertificate(bytes32 certificateId, string memory reason) public onlyAuthorizedSigner {\r\n    require(certificates[certificateId].issueDate != 0, \"Certificate does not exist\");\r\n    certificates[certificateId].isRevoked = true;\r\n    revocationReasons[certificateId] = reason;\r\n\r\n    emit CertificateRevoked(certificateId);\r\n}\r\n\r\n    // Function to allow a certificate owner to appeal incase of unfair revocation\r\n    function appealRevocation(bytes32 certificateId, string memory reason) public {\r\n    require(certificates[certificateId].isRevoked, \"Certificate is not revoked\");\r\n    require(certificates[certificateId].owner == msg.sender, \"Only certificate owner can appeal\");\r\n\r\n    \r\n    RevocationAppeal storage appeal = revocationAppeals[certificateId];\r\n    appeal.student = msg.sender;\r\n    appeal.reason = reason;\r\n    appeal.resolved = false;\r\n    appeal.approvals = 0;\r\n\r\n    emit RevocationAppealed(certificateId, msg.sender, reason);\r\n}\r\n\r\n    // Function to approve a revocked certificate incase of any appeal\r\n    function approveRevocationAppeal(bytes32 certificateId) public onlyAuthorizedSigner {\r\n        RevocationAppeal storage appeal = revocationAppeals[certificateId];\r\n        require(!appeal.resolved, \"Appeal already resolved\");\r\n        require(!appeal.approvedBy[msg.sender], \"Already approved\");\r\n\r\n        appeal.approvedBy[msg.sender] = true;\r\n        appeal.approvals++;\r\n        emit RevocationAppealApproved(certificateId, msg.sender);\r\n\r\n        if (appeal.approvals >= quorum) {\r\n            certificates[certificateId].isRevoked = false;\r\n            delete revocationAppeals[certificateId];\r\n            emit CertificateRestored(certificateId);\r\n        }\r\n    }\r\n\r\n     // Function to transfer ownership of a certificate\r\n    function transferCertificate(bytes32 certificateId, address newOwner) public {\r\n        require(certificates[certificateId].owner == msg.sender, \"Only the certificate owner can transfer\");\r\n        require(newOwner != address(0), \"Invalid address\");\r\n        certificates[certificateId].owner = newOwner;\r\n        emit CertificateTransferred(certificateId, newOwner);\r\n    }\r\n\r\n\r\n    // Function to verify a certificate\r\n    function verifyCertificate(bytes32 certificateId) public view returns (bool, string memory) {\r\n        Certificate memory cert = certificates[certificateId];\r\n        if (cert.issueDate == 0) {\r\n            return (false, \"Certificate does not exist\");\r\n        }\r\n        if (cert.isRevoked) {\r\n            return (false, \"Certificate has been revoked\");\r\n        }\r\n        return (true, \"Certificate is valid\");\r\n    }\r\n}\r\n",
  "sourcePath": "C:\\Users\\Felabs\\Documents\\TrustCertify\\contracts\\contracts\\CertificateVerification.sol",
  "compiler": {
    "name": "solc",
    "version": "0.8.13+commit.abaa5c0e.Emscripten.clang"
  },
  "schemaVersion": "3.4.16",
  "updatedAt": "2025-02-19T11:02:05.674Z",
  "networkType": "ethereum",
  "devdoc": {
    "kind": "dev",
    "methods": {},
    "version": 1
  },
  "userdoc": {
    "kind": "user",
    "methods": {},
    "version": 1
  }
}